:100000000C9439200C946A200C946A200C946A2079
:100010000C946A200C946A200C946A200C946A2038
:100020000C946A200C946A200C946A200C946A2028
:100030000C946A200D943F170C946A200C946A204B
:100040000C946A200C9492B80C946A200C946A2048
:100050000C946A200C946A200C941F9D0C9414C27A
:100060000C946A200C94DC400C94A7400C946A20F9
:100070000C946A200C946A200C946A200C946A20D8
:100080000C94E3390C946A200C946A200C946A2036
:100090000C946A200C946A200C946A200C946A20B8
:1000A0000C946A200C946A200C94B5390C946A2044
:1000B0000C946A200C946A200C946A200C94873962
:1000C0000C946A200C946A200C946A200C946A2088
:1000D0000C946A200C946A200C946A200C946A2078
:1000E0000C946A2012412441364147414F418241DC
:1000F0005341824157415B4182415F4163416741C6
:10010000704182417B41DA7BDA7B877BC17CCB7B90
:10011000CB7BC17CC17C877BC17CC17CD37BD37B07
:10012000CB7BC17C877BC17CC17CC17CDA7BDA7BE9
:10013000DA7B6FC072C061C065C06BC0A9C076C0F9
:100140007AC080C084C088C08EC092C096C0A9C04A
:100150009CC0A0C0A4C00FC114C119C123C12DC12E
:10016000A6C137C13FC147C151C15BC165C174C19F
:100170007EC1A6C188C192C19CC1E8C80AC92AC96A
:100180004FC974C92BCB99C9BCC9DFC904CA29CAD4
:100190004ECA73CA98CA2BCBBDCAE2CA07CBA0CC41
:1001A000A3CCA7CCAACCADCCD7CCB1CCB4CCB8CC5A
:1001B000BBCCBECCC2CCC5CCC8CCD7CCCCCCCFCCA5
:1001C000D2CC1102E5014B018F019B011B01810281
:1001D00063026D012101DF012B02084AD73B3BCEB0
:1001E000016E84BCBFFDC12F3D6C74319ABD568336
:1001F0003DDA3D00C77F11BED9E4BB4C3E916BAAEE
:10020000AABE000000803F05A84CCDB2D44EB9383C
:1002100036A9020C50B9918688083CA6AAAA2ABE23
:10022000000000803F000C941E710D94E0160C94A9
:1002300005E70C9414C10D9477020C9424410C949E
:100240002BCB0D9493020D94A5160C9458D50C94B9
:100250004ECA0D9442020C94DA7B0C946D870C9478
:10026000BDCA0D94DB330C9451C10C94B1CC0C94E9
:10027000AFC20C94B3D20D9452020D9436020C947A
:1002800088C00C94F4B70C9477EF0C94CB7B0C944F
:100290005E810C940E6E0D9471020C94CC6F0C94D4
:1002A00088C10C945B410D9446020C947C8B0D9498
:1002B0003A020C945BC10C9492C00D944E020C94C3
:1002C0005BD50C9447C70C9407CB0C9423C10C94BA
:1002D0007B410C94CFCC0C94AACC0D947D020D9450
:1002E000CF160C949CC00C947D6B0C9429CA0C9472
:1002F0007AF80C9482410D949B020C9434820C94F5
:10030000888B0C9488EA0C94BECC0C942DC10C9470
:100310003FC10C9465730C947BD40C94726D0D9456
:1003200098020C94C9810C94A3CC0C947EC10C94BB
:100330000FC10C94E2810D9474020C94046C0C9423
:10034000828B0C9428D10C9472C00C944E6D0C943A
:1003500058C70C94C5CC0C9478CF0C9447C10C941E
:1003600003E70C94816D0C944F410C9436410D942D
:1003700027000C94E5810D9421000C9479C50C9410
:100380008EC00C94366D0C9475DA0D9417020C9493
:1003900065C00C947ECF0C9494C20C94426D0C9466
:1003A000A9C00C94C8CC0C9498CA0C94636D0C949E
:1003B000E36B0C9479C20C94E5C20C945ED50D9459
:1003C00080020C944EEA0C946BC00D946E020C9457
:1003D0009CC10C94C4FC0C94E8C80C949D810C94B2
:1003E00000FD0C94D2CC0C9428820C94A0CC0C94DC
:1003F000D7CC0C94759C0C94486D0C945EC70C94EF
:10040000F1FF0C9462C40C944FC90C9407E70C9450
:1004100047EA0C94A0C00C94FBFF0D941C020C94B2
:10042000B5870D9495020C9447410D9412020C94DB
:1004300063410C9461D50C9453410C9406E40C94E4
:10044000F6FF0D94DD160D943E020C9499C90C94A0
:100450005EC20C9485CF0D9483020C94546D0C9461
:10046000BBCC0C9470E50C9465F80C9480C00C9493
:10047000B6810D944A020C94B16B0C9496C00C9406
:10048000ECFF0C94CAC20C94B4CC0C9457410C945D
:10049000A4C00D9463000C94C17C0D9421020C94B3
:1004A00001E70C9461F80D94DC160C9476C00D9461
:1004B00015000C94FFE60C94D37B0C942AC90C9481
:1004C00061C00D94F4160D9486020C94E8810C948E
:1004D00012410C947EF80C94A6C10C94B8CC0C94E8
:1004E00037C10C9414860C9487CF0C94CCCC0C940C
:1004F000986B0C9470410C943C6D0D9456020C94C6
:1005000065C10D947A020C94D5D60C9474C10D94E7
:10051000EE170D941B000C94236D0C947AC00C9470
:1005200069F80D9410170C9484810C9474C90C9480
:1005300092C10D9432020C9464D50C9467410C94D2
:100540000AC90C9467D50C94C2CC0C94306D0C94F1
:10055000948B0C94DFC90C94877B0C945F410C94B2
:10056000CA6B0C9404CA0C945DD00C9484C00C9497
:1005700071810C94BCC90C948E8B0C9419C10C9491
:100580005AC70C94ADCC0C945CC70C9424EA0D941F
:10059000A0030C94E2CA0C94A7CC0C946FC00C94EA
:1005A00073CA0C9492CF4E414E494E495459494E0C
:1005B00046CDCCCC3D0AD7233C17B7D13877CC2BCE
:1005C000329595E6241FB14F0A000020410000C873
:1005D0004200401C4620BCBE4CCA1B0E5AAEC59DF4
:1005E0007400407A10F35A00A0724E18090010A54A
:1005F000D4E80000E87648170000E40B540200003D
:10060000CA9A3B000000E1F50500008096980000C2
:100610000040420F000000A08601000000102700EB
:10062000000000E803000000006400000000000A71
:1006300000000000000100000000002C76D888DCDB
:10064000674F0823DFC1DFAE59E1B1B796E5E3E4B8
:1006500053C63AE651997696E8E6C28426EB898C31
:100660009B62ED407C6FFCEFBC9C9F40F2BAA56F93
:10067000A5F490055A2AF75C936B6CF9676DC11B62
:10068000FCE0E40D47FEF520E6B500D0ED902E032A
:1006900000943577050080841E080000204E0A0073
:1006A0000000C80C333333330F986E12831141EFBF
:1006B0008D2114893BE65516CFFEE6DB18D1844B1D
:1006C000381BF77C1D901DA4BBE424203284725E8D
:1006D000228100C9F124ECA1E53D27434F4D4D5542
:1006E0004E49434154494F4E0044525952554E00D1
:1006F0004552524F5253004543484F006F6B002004
:1007000028302D313029002076616C7565206F7599
:1007100074206F662072616E676500416476616E59
:100720006365204B3D003F2842296175642072615A
:10073000746520696D706C61757369626C652E0AF1
:10074000002053657269616C2030206261756420FD
:10075000726174652073657420746F200045455084
:10076000524F4D204F4B0A004F66667365747320DD
:100770004170706C696564004572723A20546F6F05
:10078000206661722100546F6F206661722066726C
:100790006F6D207265666572656E636520706F6946
:1007A0006E740A004D34323120696E636F72726567
:1007B000637420706172616D657465722075736118
:1007C00067650A0046696C616D656E742072756EAE
:1007D0006F757420006469730043290A0061626CBC
:1007E000656420286D696E2074656D702000436F0C
:1007F0006C6420657874727564657320617265201D
:1008000000496E76616C6964206578747275646500
:10081000720A0020643A0020693A0020703A0020F1
:10082000536572766F200020466C6F773A20004641
:10083000523A00205200416363656C6572617469CD
:100840006F6E3A205000206C696D69746564207485
:100850006F2000204D6178200046656564726174E8
:1008600065004D31343520533C696E6465783E2017
:100870006F7574206F662072616E67652028302D59
:1008800031290A002F2F20004348414D4245525F35
:1008900054454D50455241545552450042414259EC
:1008A0005354455050494E47004D4F54494F4E5FA9
:1008B0004D4F44455300544845524D414C5F5052B2
:1008C0004F54454354494F4E004C4F4E475F4649A5
:1008D0004C454E414D45004155544F5245504F52A5
:1008E000545F53445F535441545553005344434160
:1008F00052440050524F4D50545F535550504F5238
:100900005400454D455247454E43595F504152535F
:10091000455200434153455F4C494748545F42525A
:10092000494748544E45535300544F47474C455F41
:100930004C494748545300534F4654574152455F22
:10094000504F574552004255494C445F5045524321
:10095000454E54004C4556454C494E475F44415422
:1009600041005A5F50524F4245004155544F4C454B
:1009700056454C005052494E545F4A4F4200505227
:100980004F4752455353004155544F5245504F52D3
:10099000545F54454D5000564F4C554D45545249A7
:1009A000430042494E4152595F46494C455F5452BB
:1009B000414E534645520053455249414C5F584FB2
:1009C0004E5F584F4646004649524D574152455F8B
:1009D0004E414D453A4D61726C696E206275676695
:1009E00069782D322E302E7820284A756C202034DC
:1009F00020323032302030313A30373A3036292008
:100A0000534F555243455F434F44455F55524C3A0F
:100A100068747470733A2F2F6769746875622E63F7
:100A20006F6D2F4D61726C696E4669726D77617280
:100A3000652F4D61726C696E2050524F544F434F79
:100A40004C5F56455253494F4E3A312E30204D415E
:100A50004348494E455F545950453A417274696C58
:100A60006C657279205369646577696E646572207C
:100A700058312045585452554445525F434F554EC6
:100A8000543A3120555549443A63656465326132C0
:100A9000662D343161322D343734382D396231329C
:100AA0002D6335356336326633363766660A004164
:100AB0007274696C6C657279205369646577696ECC
:100AC000646572205831204F46462E0042656420EE
:100AD000436F6F6C696E672E2E2E0042656420484E
:100AE000656174696E672E2E2E004D3131332053AF
:100AF0000044454255473A00452025530050726F47
:100B00007465637465642050696E0A00496E76618D
:100B10006C69642050696E204D6F64650A00256918
:100B20007920256964202569682025696D2025695B
:100B300073005072696E742074696D653A20004EBE
:100B40006F204D6F76652E004D302053746F70000E
:100B50004D312053746F7000436C69636B20746F68
:100B600020526573756D652E2E2E004D65736820BD
:100B7000706F696E74206F7574206F662072616E7D
:100B800067650A00536C6565702E2E2E0047322F64
:100B900047332062616420706172616D65746572B3
:100BA000730A00FFFFFF00000000000000000000CB
:100BB0000000F706D00BF006E906DB06554E4B4E5B
:100BC0004F574E2053544154450047434F44455FCF
:100BD000494E464F004C43445F50415553455F5288
:100BE0004553554D450046494C414D454E545F5285
:100BF000554E4F55545F434F4E54494E5545004650
:100C0000494C414D454E545F52554E4F5554004D41
:100C100038373620526573706F6E64696E67205086
:100C2000524F4D50545F004572726F722077726957
:100C300074696E6720746F20454550524F4D210AEC
:100C4000004E6F20436865636B73756D2077697420
:100C500068206C696E65206E756D6265722C204C23
:100C6000617374204C696E653A2000636865636B3C
:100C700073756D206D69736D617463682C204C61B0
:100C80007374204C696E653A20004C696E65204E85
:100C9000756D626572206973206E6F74204C61738C
:100CA00074204C696E65204E756D6265722B312C17
:100CB000204C617374204C696E653A20004D3131CF
:100CC0003000776169740A002121204B494C4C2087
:100CD000636175736564206279204B494C4C2062D6
:100CE0007574746F6E2F70696E0A002121204B4954
:100CF0004C4C2063617573656420627920746F6F5A
:100D0000206D75636820696E61637469766520740F
:100D1000696D65202D2063757272656E7420636F36
:100D20006D6D616E643A2000627573793A2070616E
:100D30007573656420666F7220696E7075740A0041
:100D4000627573793A2070617573656420666F729D
:100D500020757365720A00627573793A2070726F3C
:100D600063657373696E670A007061757365004D22
:100D7000363030002066696C616D656E745F727527
:100D80006E6F7574200066696C616D656E745F725C
:100D9000756E6F757420540046696C616D656E7474
:100DA00052756E6F7574205400506C6561736520C8
:100DB0005265736574005052494E54455220484163
:100DC0004C5445440025533A20255300706F7765F5
:100DD000726F6666004B494C4C45442E20005072A1
:100DE000696E7465722068616C7465642E206B692D
:100DF0006C6C28292063616C6C6564210A003637AD
:100E000026033C3D380E2E303E1324221E1A1C1899
:100E10000A0743080907084400016563686F3A0040
:100E20004572726F723A0042696C696E6561722038
:100E30004C6576656C696E6720477269643A0A0092
:100E400053544F505045442E20005072696E7465C3
:100E5000722073746F707065642064756520746FA0
:100E6000206572726F72732E2046697820746865EF
:100E7000206572726F7220616E6420757365204DFB
:100E800039393920746F20726573746172742E2041
:100E90002854656D70657261747572652069732080
:100EA00072657365742E20536574206974206166C1
:100EB0007465722072657374617274696E67290A51
:100EC0000021212053544F502063616C6C656420D5
:100ED00062656361757365206F6620424C546F755F
:100EE0006368206572726F72202D20726573746161
:100EF00072742077697468204D3939390A002F2FB0
:100F0000616374696F6E3A00626567696E00736849
:100F10006F770044697361626C6552756E6F7574AA
:100F20000050757267654D6F726500486F74656E2D
:100F30006420746F6F20636F6C640A0053656E6485
:100F4000204D31303820746F20726573756D650ADD
:100F50000052656865617420446F6E650052656873
:100F6000656174696E672E2E2E0052656865617426
:100F7000004865617465722054696D656F75740011
:100F800053656E64204D31303820746F2068656180
:100F900074206E6F7A7A6C650A004E6F7A7A6C658F
:100FA000205061726B656400706175736564004DFB
:100FB0003630303A20546F6F20436F6C6400726596
:100FC00073756D656400526573756D696E67002495
:100FD000F4D43050C38E20C2A24017828B701112FD
:100FE0007A910D816CD90AA861E108C7586607613A
:100FF0005143061E4B5D05C145A7041A4111040962
:101000003D9803713931034036DB0265339102D4D8
:10101000305402802E1D02632CEE01752AC501B0EA
:1010200028A001102781018F2564012B244B01E0AA
:10103000223401AC211F018D200D01801FFC008492
:101040001EED00971DDF00B81CD200E61BC6002075
:101050001BBC00641AB200B219A8000A19A0006AE9
:10106000189900D117910040178B00B516840031F4
:10107000167E00B31579003A157300C7146F005837
:10108000146A00EE1366008813630025135E00C720
:10109000125B006C12570015125400C11151007000
:1010A000114F0021114B00D61049008D104700460A
:1010B00010440002104200C00F4000800F3E00426A
:1010C0000F3C00060F3B00CB0E3800930E37005C40
:1010D0000E3500270E3400F30D3200C10D310090A3
:1010E0000D3000600D2E00320D2D00050D2C00D9A5
:1010F0000C2B00AE0C2900850C29005C0C27003558
:101100000C27000E0C2600E80B2400C40B2400A0C2
:101110000B23007D0B23005A0B2100390B210018F3
:101120000B2000F80A1F00D90A1E00BB0A1E009DF2
:101130000A1D00800A1D00630A1C00470A1B002CC0
:101140000A1B00110A1A00F7091A00DD091900C468
:10115000091900AB091900920917007B09180063EF
:101160000917004C09160036091600200916000A56
:10117000091500F5081500E0081400CC081400B8A3
:10118000081400A4081400900813007D0812006BD6
:1011900008130058081200460812003408110023F2
:1011A0000811001208110001081100F0071000E0FA
:1011B000071000D0071000C0071000B0070F00A1F3
:1011C00007100091070E0083070F0074070F0065DA
:1011D000070E0057070E0049070E003B070D002EB3
:1011E000070E0020070D0013070D0006070D00F97C
:1011F000060C00ED060D00E0060C00D4060C00C83D
:10120000060C00BC060C00B0060C00A4060B0099EE
:10121000060C008D060B0082060B0077060B006C97
:10122000060B0061060A0057060B004C060A004236
:10123000060A0038060A002E060A0024060A001ACA
:10124000060A001006090007060A00FD050900F459
:10125000050900EB050900E2050900D9050900D0E0
:10126000050900C7050900BE050900B5050800AD60
:10127000050800A50509009C050800940508008CD8
:10128000050800840508007C050800740508006C4A
:10129000050700650508005D050700560508004EB6
:1012A000050700470507004005080038050700311D
:1012B0000507002A050700230507001C0506001680
:1012C0000507000F0507000805060002050700FBDB
:1012D000040600F5040700EE040600E8040600E238
:1012E000040700DB040600D5040600CF040600C98D
:1012F000040600C3040600BD040600B7040600B1DE
:10130000040500AC040600A6040600A00405009B2A
:1013100004060095040500900406008A0405008573
:10132000040500800406007A0405007504050070B9
:101330000405006B04050066040500610405005CFB
:1013400004050057040500520405004D040500483B
:10135000040500430405003E0404003A040500357A
:10136000040500300404002C0405002704040023B5
:101370000405001E0404001A0404001604050011EC
:101380000404000D04040009040500040404000022
:10139000040400FC030400F8030400F4030400F058
:1013A000030400EC030400E8030400E4030400E089
:1013B000030400DC030400D8030400D4030400D0B9
:1013C000030400CC030400C8030300C50303002486
:1013D000F404D9201BC40C5C0E9804C4095F026598
:1013E000077101F405F900FB04B30048048700C14C
:1013F0000369005803550003034500BE023A008408
:1014000002310053022A002902250004022000E4D0
:10141000011C00C8011900AF0117009801140084D5
:10142000011300710110006101100051010E004311
:10143000010D0036010B002B010B0020010B0015E4
:101440000109000C01090003010800FB000800F37A
:10145000000800EB000700E4000600DE000600D8EC
:10146000000600D2000600CC000500C7000500C23F
:10147000000500BD000400B9000400B5000400B17F
:10148000000400AD000400A9000400A5000300A2B0
:101490000003009F0004009B0003009800030095D8
:1014A00000020093000300900003008D0002008BF7
:1014B000000300880002008600020084000300810F
:1014C0000002007F0002007D0002007B0002007924
:1014D0000002007700010076000200740002007232
:1014E000000100710002006F0002006D0001006C3D
:1014F0000002006A00010069000200670001006646
:10150000000100650001006400020062000100614A
:10151000000100600001005F0002005D0001005C4E
:101520000001005B0001005A000100590001005851
:101530000001005700010056000100550001005451
:10154000000100530000005300010052000100514F
:10155000000100500001004F0001004E0000004E4D
:101560000001004D0001004C0001004B0000004B49
:101570000001004A00010049000100480000004845
:101580000001004700010046000000460001004540
:10159000000000450001004400010043000000433A
:1015A0000001004200000042000100410000004133
:1015B000000100400001003F0000003F0001003E2C
:1015C0000000003E0001003D0000003D0001003C25
:1015D0000000003C0000003C0001003B0000003B1C
:1015E0000001003A0000003A000100390000003913
:1015F000000100380000003800000038000100370A
:101600000000003700010036000000360000003600
:1016100000010035000000350000003500010034F5
:1016200000000034000000340001003300000033EB
:1016300000000033000100320000003200000032E0
:1016400000010031000000310000003100010030D5
:1016500000000030000000300001002F0000002FCB
:101660000000002F0000002F0001002E0000002EBF
:101670000000002E0001002D0000002D0000002DB4
:101680000000002D0001002C0000002C0000002CA8
:101690000000002C0001002B0000002B0000002B9C
:1016A0000000002B0001002A0000002A0000002A90
:1016B0000000002A00010029000000290000002984
:1016C0000000002900000029000100280000002877
:1016D000000000280000002800000028000100276A
:1016E000000000270000002700000027000000275E
:1016F0000001002600000026000000260000002651
:101700000000002600010025000000250000002543
:101710000000002500000025000000250001002435
:101720000000002400000024000000240000002429
:10173000000100230000002300000023000000231C
:10174000000000230000002300000023000100220D
:101750000000002200000022000000220000002201
:1017600000000022000100210000002100000021F3
:1017700000000021000000210000002100000021E5
:1017800000010020000000200000002000000020D8
:1017900000000020000000200000002000000020C9
:1017A0000001001F0000001F0000001F0000001FBC
:1017B0000000001F0000001F0000001F0001001EAD
:1017C0000000001E0000001E0000001E000000239C
:1017D0002C0000B8220000561800003A0F0000B894
:1017E000080000B1040000710200003E0100004743
:1017F00032362048656174696E67204E6F7A7A6C64
:1018000065004732362048656174696E672042651D
:10181000640057616974696E6720666F722068653D
:10182000617475702E0A004669786564204C656E97
:10183000677468205072696D6500446F6E65205052
:1018400072696D696E67004D616E75616C207072B2
:10185000696D696E672E2E2E004732362043616E09
:1018600063656C6564004C656176696E672047321C
:1018700036003F53706563696669656420582C596A
:1018800020636F6F7264696E617465206F75742078
:101890006F6620626F756E64732E0A003F285229AE
:1018A00065706561742076616C7565206E6F74205B
:1018B000706C61757369626C653B206D7573742023
:1018C0006265206174206C6561737420312E0A009A
:1018D0003F537065636966696564206E6F7A7A6CE0
:1018E000652074656D7065726174757265206E6FC8
:1018F0007420706C61757369626C652E0A003F53C9
:1019000070656369666965642066696C616D656EA2
:10191000742073697A65206E6F7420706C617573C2
:1019200069626C652E0A003F53706563696669657C
:1019300064207072696D65206C656E677468206ED6
:101940006F7420706C61757369626C652E0A003F5C
:10195000537065636966696564206E6F7A7A6C6539
:101960002073697A65206E6F7420706C617573697D
:10197000626C652E0A003F52657472616374696F10
:101980006E204D756C7469706C696572206D75732D
:1019900074206265207370656369666965642E0AE8
:1019A000003F5370656369666965642052657472AF
:1019B000616374696F6E204D756C7469706C6965D4
:1019C00072206E6F7420706C61757369626C652E25
:1019D0000A003F537065636966696564206C6179CC
:1019E000657220686569676874206E6F7420706C1A
:1019F00061757369626C652E0A0043292E0A003FE7
:101A00005370656369666965642062656420746506
:101A10006D7065726174757265206E6F7420706C84
:101A200061757369626C65202834302D0047323649
:101A3000207374617274696E672E2E2E0A004C6FCB
:101A40006164206D6D00556E6C6F6164206D6D007A
:101A500046696C2E204469612E004520696E206D18
:101A60006DC2B30020022046616374002002204D45
:101A70006178002002204D696E004175746F7465B5
:101A80006D70005654726176204D696E00566D6916
:101A90006E00566D6178204500566D6178205A00C1
:101AA000566D6178205900566D6178205800206D80
:101AB00061783A2000206D696E3A200050726F62A2
:101AC00065204F6666736574205A003F5A206F7513
:101AD00074206F662072616E67652028003F592070
:101AE0006F7574206F662072616E676520282D0007
:101AF0003F58206F7574206F662072616E67652095
:101B0000282D0050726F6265204F666673657420E1
:101B10005800526573656E643A20002364656669F7
:101B20006E652044454641554C545F004B6420008F
:101B30004B6920004B702000504944204175746F60
:101B400074756E652066696E6973686564212050DE
:101B5000757420746865206C617374204B702C2040
:101B60004B6920616E64204B6420636F6E737461F7
:101B70006E74732066726F6D2062656C6F7720697A
:101B80006E746F20436F6E66696775726174696FFA
:101B90006E2E680A00504944204175746F74756E4A
:101BA00065206661696C6564212074696D656F7577
:101BB000740A000A20436C617373696320504944BE
:101BC000200A00204B643A2000204B693A20002074
:101BD0004B703A20000A204E6F206F766572736852
:101BE0006F6F740A002054753A2000204B753A201C
:101BF0000020643A200020626961733A2000504955
:101C000044204175746F74756E65207374617274CD
:101C10000A00504944204175746F74756E652066E2
:101C200061696C6564212054656D706572617475BD
:101C3000726520746F6F20686967680A00504944B4
:101C4000204175746F74756E65206661696C65649A
:101C50002120426164206578747275646572206E1B
:101C6000756D6265720A00A10000006900A20000A3
:101C7000006300B00000000900C10000004100C284
:101C80000000004100C30000004100C4000000410A
:101C900000C50000004100C60000004145C700002B
:101CA000004300C80000004500C90000004500CD09
:101CB0000000004900D10000004E00D50000004F98
:101CC00000D60000004F00D70000007800DC0000C4
:101CD000005500DD0000005900E00000006100E157
:101CE0000000006100E20000006100E3000000610C
:101CF00000E40000006100E50000006100E6000073
:101D0000006165E70000006300E80000006500E98D
:101D10000000006500EA0000006500EB00000065BF
:101D200000EC0000006900ED0000006900EE00001A
:101D3000006900EF0000006900F10000006E00F291
:101D40000000006F00F30000006F00F40000006F5F
:101D500000F50000006F00F60000006F00F80000C2
:101D6000006F00F90000007500FA0000007500FB2C
:101D70000000007500FC0000007500FD0000007907
:101D800000FF00000079000401000041000501008F
:101D90000061000601000043000701000063000C21
:101DA00001000043000D01000063000E010000442B
:101DB000000F01000064001101000064001901001F
:101DC0000065001A01000045001B01000065001FAE
:101DD0000100006700300100004900310100006986
:101DE00000410100004C00420100006C0043010072
:101DF000004E00440100006E00480100006E0058D3
:101E000001000052005901000072005A0100005305
:101E1000005B01000073005F0100007300600100BF
:101E20000053006101000073006501000074006F41
:101E300001000075007C0100007A007D0100005A5D
:101E4000007E0100007A00920100006600E30200BB
:101E5000007800222000002E001E21000050782271
:101E6000210000544D902100003C2D922100002DB6
:101E70003EB02100000300BB21000004003C220012
:101E8000007E00482200007E3D60220000213D616E
:101E90002200003D00642200003C3D652200003E1F
:101EA0003DF12300000700A03000003D0021F301B8
:101EB000000200C2F401000500A1000000A900A278
:101EC000000000A400A3000000A500A5000000A6DB
:101ED00000A7000000D200A9000000CF00AA000067
:101EE000009D00AB000000BB00AE000000CE00B0C3
:101EF000000000B200B10000001000B20000001E9F
:101F000000B30000001F00B6000000D300BA0000BC
:101F1000009E00BB000000BC00BC000000B600BD7D
:101F2000000000B500BF0000009F00C20000008F4D
:101F300000C3000000AA00C40000008E00C600001C
:101F4000009200C70000008000C90000009000D18E
:101F50000000009C00D5000000AC00D600000099F5
:101F600000D7000000B700D8000000AE00DC000081
:101F7000009A00E00000008500E1000000A000E2FF
:101F80000000008300E3000000AB00E400000084D8
:101F900000E50000008600E60000009100E7000078
:101FA000008700E80000008A00E90000008200EAE3
:101FB0000000008800EB0000008900EC0000008DAC
:101FC00000ED000000A100EE0000008C00EF00001A
:101FD000008B00F10000009B00F20000009500F370
:101FE000000000A200F40000009300F5000000AD26
:101FF00000F60000009400F7000000B800F80000B0
:1020000000AF00F90000009700FA000000A300FBF9
:102010000000009600FC0000008100FF0000009816
:102020000092010000A8008E030000DB008F030077
:1020300000DE0090030000E70093030000D400944A
:10204000030000D50098030000D6009B030000D7D2
:10205000009E030000D800A0030000D900A30300E5
:1020600000DA00A5030000DB00A6030000DC00A8E6
:10207000030000DD00A9030000DE00AC030000DF68
:1020800000AD030000E300AE030000E500AF030075
:1020900000E700B0030000F100B1030000DF00B270
:1020A000030000E000B3030000E100B4030000E21D
:1020B00000B5030000E300B6030000E400B703002E
:1020C00000E500B8030000E600B9030000E700BA2D
:1020D000030000E800BB030000E900BC030000EAC5
:1020E00000BD030000EB00BE030000EC00C00300D5
:1020F00000ED00C1030000EE00C3030000EF00C4C8
:10210000030000F000C5030000F100C7030000F267
:1021100000C8030000F300C9030000F400CA030074
:1021200000E700CB030000F100CD030000F100CE7A
:10213000030000F40022200000CD001E210000A7B3
:102140000022210000D000A4210000F900B52100E8
:1021500000C400BB2100000400E5210000FB001AC0
:10216000220000BE001E220000C2002B2200001B25
:10217000003C2200001D00482200001A00602200DE
:1021800000BD0061220000110064220000B900655A
:10219000220000BA0020230000C00021230000C15B
:1021A00000A72300001400A92300001500AB2300A2
:1021B000001600AD2300001700B02300001800B186
:1021C0002300001900B22300001200B32300001303
:1021D00000F123000007000C250000C900102500B5
:1021E00000CA0014250000CB0018250000CC00F820
:1021F000250000C300602B0000C800612B0000C553
:1022000000622B0000C700632B0000C600C62B0035
:1022100000F500C72B0000F700C82B0000F60000F7
:1022200010101010101000001414141414140000D6
:1022300015151515151500040E1F041C00000000CF
:102240000E1315110E00001C1018170506050004CA
:102250000A0A0A0A11110E0C12120C0000000000EA
:102260001F1511151F0000456E636C6F7375726545
:1022700000446F6E652E0A0050756C73696E67209E
:10228000202000556E746F75636865642000666178
:102290006C7365004641494C3A204E6F2074726958
:1022A000676765722064657465637465640A0046D7
:1022B00041494C3A204E6F697365206465746563CB
:1022C000746564202D20706C656173652072652DC6
:1022D00072756E20746573740A003D20424C546F11
:1022E000756368207072652056332E3120286F7216
:1022F00020636F6D70617469626C6529003D205ABE
:1023000020536572766F2050726F6265003D2042E7
:102310004C546F7563682056332E310020282B2FC4
:102320002D20346D73293A20003A2033306D73200C
:102330006F72206D6F72650A002E2050756C736588
:10234000207769647468002A2A20506C656173657F
:1023500020747269676765722070726F626520779A
:10236000697468696E20333020736563202A2A0AF5
:10237000004641494C3A20424C544F554348206551
:102380006E61626C6564202D205365742075702029
:102390007468697320646576696365206173206180
:1023A00020536572766F2050726F62652077697472
:1023B0006820494E56455254494E47207365742053
:1023C000746F202774727565272E0A0020204445FB
:1023D000504C4F5945442073746174653A204C4FFA
:1023E0005720286C6F6769632030290020204445FE
:1023F000504C4F5945442073746174653A204849E4
:10240000474820286C6F676963203129003D204DC3
:10241000656368616E6963616C2053776974636892
:102420002064657465637465640A005741524E49BF
:102430004E473A20494E56455254494E47207365FF
:102440007474696E672070726F6261626C79206269
:1024500061636B77617264732E0A002E204465708D
:102460006C6F7920262073746F7720342074696D27
:1024700065730A003D20424C546F75636820436CBD
:10248000617373696320312E322C20312E332C205E
:10249000536D61727420312E302C20322E302C205E
:1024A000322E322C20332E302C20332E31206465F6
:1024B0007465637465642E0A002E20436865636B3F
:1024C00020666F7220424C544F5543480A002E201C
:1024D0005A5F4D494E5F454E4453544F505F494EED
:1024E00056455254494E473A20002E2050726F6292
:1024F00065205A5F4D494E5F50494E3A20002C20CE
:1025000073746F7720616E676C653A202020002C11
:10251000206465706C6F7920616E676C653A20008D
:10252000536572766F2070726F6265207465737484
:102530000A2E207573696E6720696E6465783A208B
:1025400020004D343320576169742043616C6C6501
:1025500064005761746368696E672070696E730AFE
:1025600000656E6473746F70206D6F6E69746F7246
:102570002000204D393220580020204D61783A202B
:102580000020204D696E3A2000536F667420656EFE
:102590006473746F70733A200020496E76616C69C1
:1025A0006420657874727564657220004361703AC6
:1025B0000000002200250028002B002E00310034EE
:1025C0000002010000050108010B010000200023AA
:1025D00000260029002C002F00320000010000031B
:1025E0000106010901050505050705080808080297
:1025F0000202020A0A08080404040401010101019C
:102600000101010303030303030303040707070C8A
:102610000C0C0C0C0C0C0C02020202060606060640
:102620000606060B0B0B0B0B0B0B0B0102102020ED
:102630000808102040102040800201020108040216
:10264000010102040810204080804020100804028C
:1026500001800402018040201008040201080402E5
:1026600001010204081020408001020408102040EB
:102670008000000A0B02090C0D0E0807030401007C
:10268000000000000000000000000000000000004A
:102690000000000000000000000000000012111007
:1026A000000000000000000000000000000000002A
:1026B000000000000000004D6F76652025736D6DF1
:1026C000004D6F766520302E316D6D004D6F766553
:1026D00020316D6D004D6F76652031306D6D004D90
:1026E0006F7665204178697300486F74656E642069
:1026F000746F6F20636F6C640045787472756465E5
:1027000072004D6F7665205A004D6F766520590036
:102710004D6F76652058004368616E676520466995
:102720006C616D656E7400556E6C6F6164204669F6
:102730006C616D656E74004C6F61642046696C61FC
:102740006D656E7400507265686561742041425316
:10275000005072656865617420504C41005072658C
:102760006865617420437573746F6D004261636BBB
:1027700000453100626564002C2073797374656DC7
:102780002073746F70706564212048656174657290
:102790005F49443A200048656174696E672046616C
:1027A000696C65640048656174696E67206661697B
:1027B0006C6564004D3131322053687574646F77F5
:1027C0006E00202D20496E76616C696420657874F6
:1027D0007275646572206E756D62657220210A00E3
:1027E000544845524D414C2052554E415741590095
:1027F000546865726D616C2052756E617761790005
:102800004572723A204D415854454D50004D415843
:1028100054454D5020747269676765726564004560
:1028200072723A204D494E54454D50004D494E5418
:10283000454D5020747269676765726564000A0AC5
:102840000020205A5F4D494E3A002020595F4D49E3
:102850004E3A002020585F4D494E3A00202F00206C
:1028600042403A0020403A000070012C01900127BC
:1028700001B0012201C0011D01F001180110021375
:102880000130020E016002090190020401C002FF42
:10289000000003FA004003F5008003F000D003EBD2
:1028A000002004E6007004E100E004DC004005D7ED
:1028B00000C005D2004006CD00D006C8008007C386
:1028C000003008BE00F008B900C009B400B00AAF7B
:1028D00000B00BAA00D00CA500000EA000500F9B6A
:1028E00000C01096005012910000148C00C0158793
:1028F00000B0178200B0197D00D01B7800001E7355
:102900000040206E0090226900F024640040275FA0
:102910000090295A00E02B5500102E500020304B1B
:102920000010324600E033410090353C001037374C
:102930000070383200A0392D00B03A2800A03B23A7
:1029400000603C1E00103D1900903D1400103E0F29
:1029500000703E0A00C03E0500003F0000403FFB03
:10296000FF803FF6FFC03FF1FF20746F6F206C6F58
:102970006E6720657874727573696F6E207072650A
:1029800076656E7465640A0020636F6C64206578F8
:1029900074727573696F6E2070726576656E74659A
:1029A000640A0000000001000000010000800055E2
:1029B0005555000000400033333300AAAA2A0049CD
:1029C00092240000002000C7711C0099991900D1C1
:1029D000451700555515003BB1130024491200114D
:1029E000111100000010000F0F0F00E3380E00431C
:1029F000790D00CCCC0C00C3300C00E8A20B0064B5
:102A0000210B00AAAA0A00703D0A009DD8090042C5
:102A10007B090092240900DCD30800888808001094
:102A200042080000000800F0C10700878707007512
:102A3000500700711C07003EEB0600A1BC060069B0
:102A400090060066660600703E06006118060017D4
:102A5000F4050074D105005BB00500B2900500627A
:102A60007205005555050078390500B81E050005AA
:102A70000505004EEC040087D40400A1BD040090BD
:102A8000A7040049920400C17D0400EE690400C758
:102A9000560400444404005C320400082104004150
:102AA000100400000004003FF00300F8E0030026DB
:102AB000D20300C3C30300CCB503003AA803000A45
:102AC0009B0300388E0300C08103009F750300D074
:102AD000690300505E03001D530300344803009156
:102AE0003D03003333030016290300381F0300970A
:102AF000150300300C0300030303000BFA02004926
:102B0000F10200BAE802005CE002002DD802002DBC
:102B1000D0020059C80200B0C0020031B90200DA88
:102B2000B10200AAAA0200A0A30200BC9C0200FA03
:102B30009502005C8F0200DF88020082820200455D
:102B40007C02002776020027700200436A02007CA4
:102B5000640200D05E02003F590200C8530200FF29
:102B6000FDFCFAF8F6F4F2F0EEECEAE9E7E5E3E171
:102B7000E0DEDCDAD9D7D5D4D2D0CFCDCBCAC8C726
:102B8000C5C3C2C0BFBDBCBAB9B7B6B4B3B2B0AFAB
:102B9000ADACAAA9A8A6A5A4A2A1A09E9D9C9A9905
:102BA000989795949392908F8E8D8B8A898887863B
:102BB00084838281807F7E7D7B7A79787776757455
:102BC000737271706F6E6D6C6B6A6968676665644D
:102BD000636261605F5E5D5C5B5A59585857565539
:102BE0005453525150504F4E4D4C4B4A4A4948470E
:102BF0004646454443424241403F3E3E3D3C3B3BCE
:102C00003A39383837363535343332323130302F7F
:102C10002E2E2D2C2B2B2A29292827272625252423
:102C2000232322212120201F1E1E1D1C1C1B1B1ABA
:102C30001919181817161615151413131212111145
:102C4000100F0F0E0E0D0D0C0C0B0A0A09090808C7
:102C5000070706060505040403030202010000201D
:102C60005A3A0020593A0070726F6D70745F0065B7
:102C70006E64002020506C616E6E657242756666EF
:102C8000657242797465733A20002046726565204A
:102C90004D656D6F72793A2000436F6D70696C6598
:102CA000643A204A756C20203420323032300A00D9
:102CB000204C61737420557064617465643A2032ED
:102CC0003032302D30362D3231207C204175746801
:102CD0006F723A2047320A006275676669782D3252
:102CE0002E302E780A004D61726C696E0020536F91
:102CF0006674776172652052657365740A002057A7
:102D000061746368646F672052657365740A00209C
:102D100042726F776E206F75742052657365740A06
:102D2000002045787465726E616C2052657365741D
:102D30000A00506F77657255700A0025532025638D
:102D400020256320256320256300656E6473746FFE
:102D50007073206869743A20000000210024002765
:102D6000002A002D0030003300010100000401079B
:102D7000010A014573746570732F6D6D005A737489
:102D80006570732F6D6D005973746570732F6D6D61
:102D9000005873746570732F6D6D0043616E6365C9
:102DA0006C00496E6974004D34323800496E6974A4
:102DB00069616C697A6520454550524F4D005374E6
:102DC0006570732F6D6D0050726F6265204F66667F
:102DD0007365747300416363656C65726174696FD8
:102DE0006E0056656C6F6369747900536574204892
:102DF0006F6D65204F66667365747300436D643A4A
:102E00002053746F7700436D643A204465706C6F93
:102E10007900436D643A2053656C662D5465737474
:102E200000436D643A2053572D4D6F646500436D28
:102E3000643A205265736574005A325F53544550AA
:102E40005F50494E005A325F454E41424C455F50FB
:102E5000494E005A325F4449525F50494E005A5F12
:102E600053544F505F50494E005A5F535445505F82
:102E700050494E005A5F4D494E5F50494E005A5FCF
:102E8000454E41424C455F50494E005A5F444952BD
:102E90005F50494E00595F53544F505F50494E00A8
:102EA000595F535445505F50494E00595F4D494E4C
:102EB0005F50494E00595F454E41424C455F504975
:102EC0004E00595F4449525F50494E00585F535479
:102ED0004F505F50494E00585F535445505F504922
:102EE0004E00585F4D494E5F50494E00585F454E69
:102EF00041424C455F50494E00585F4449525F5033
:102F0000494E00534552564F335F50494E0053458A
:102F100052564F325F50494E00534552564F315F23
:102F200050494E00534552564F305F50494E005362
:102F30004453530053445F4445544543545F504900
:102F40004E005247425F4C45445F425F50494E003D
:102F50005247425F4C45445F475F50494E005247DD
:102F6000425F4C45445F525F50494E0052414D50C4
:102F7000535F44395F50494E0052414D50535F44B6
:102F8000385F50494E0052414D50535F4431305FDD
:102F900050494E004D4F534645545F445F50494E93
:102FA000004D4158363637355F53535F50494E0018
:102FB0004C45445F50494E004C43445F50494E538A
:102FC0005F5253004C43445F50494E535F454E415E
:102FD000424C45004C43445F50494E535F443700D8
:102FE0004C43445F50494E535F4436004C43445F6A
:102FF00050494E535F4435004C43445F50494E5353
:103000005F4434004B494C4C5F50494E00484541A9
:103010005445525F4245445F50494E004845415433
:1030200045525F305F50494E0046494C5F52554E05
:103030004F55545F50494E0046414E315F50494E06
:103040000045315F535445505F50494E0045315F54
:10305000454E41424C455F50494E0045315F444921
:10306000525F50494E0045315F43535F50494E0017
:1030700045305F535445505F50494E0045305F45E1
:103080004E41424C455F50494E0045305F444952E5
:103090005F50494E0045305F4155544F5F46414EA9
:1030A0005F50494E00455F4D5558325F50494E00C4
:1030B000455F4D5558315F50494E00455F4D55585D
:1030C000305F50494E0042544E5F454E43004254DB
:1030D0004E5F454E320042544E5F454E31004245F0
:1030E000455045525F50494E004156525F53535F21
:1030F00050494E004156525F53434B5F50494E007A
:103100004156525F4D4F53495F50494E0041565210
:103110005F4D49534F5F50494E0054454D505F42FB
:1031200045445F50494E0054454D505F315F504912
:103130004E0054454D505F305F50494E0046494C5B
:1031400057494454485F50494E0054584430005247
:10315000584430005741524E494E4721204C6F771A
:10316000205A204A65726B206D6179206C6561641C
:1031700020746F20756E77616E7465642070617560
:103180007365732E0A0050574D3A20202534640091
:1031900020202020434F4D002020206E6F6E2D7385
:1031A00074616E646172642050574D206D6F646568
:1031B00000202020636F6D7061726520696E7465F8
:1031C000727275707420656E61626C656400202097
:1031D000206F766572666C6F7720696E74657272A7
:1031E00075707420656E61626C656400202020201B
:1031F00054494D534B00423A2000413A20002020D0
:10320000202054434352002020202043533A2000E2
:103210002020202057474D3A2000202020205449CC
:103220004D45520020697320616C736F207469658D
:103230006420746F20746869732070696E0054494B
:103240004D45523143000A202E002020506F7274E9
:103250003A2000202020416E616C6F6720696E204B
:103260003D2025356C64003C756E757365642F7563
:103270006E6B6E6F776E3E004F7574707574203D87
:103280002000496E70757420203D200070726F74AC
:10329000656374656420002028412532642920205C
:1032A00000253364200047004800000088008A00A1
:1032B0008C00B300B400000098009A009C00A800A5
:1032C000AA00AC0028012A012C01440045006E0030
:1032D000800081006F00B000B1007000900091008C
:1032E0007100A000A10072002001210173004F3184
:1032F00000014A3101013D313B00323143002731A9
:1033000045001A3144000D31320100313301F430EF
:103310003401E9303501DE302501D6301F01CE30D1
:103320002101C6302301BB302801B0302A01A5306D
:103330002C01953007018A301C017C301801703057
:103340001A0166302C015B3022014D301E014130E4
:1033500024019D30090138300701293002011C3059
:103360000A010D30080104302901F82F1701EC2F54
:103370001901E02F1B01D42F1D01C42F1101B82FFB
:103380001001B02F0D01A12F420111313201942FF4
:10339000070104313301862F0A01792F08016C2FB0
:1033A00009015E2F0501502F0401422F0601F8305C
:1033B0003401342F31012F2F3501242F0B01192F08
:1033C00006010E2F0501032F0401A92F3501F92E47
:1033D0003701EC2E2601E22E0301D72E3601CC2E2A
:1033E0000301C22E3D01B52E3801AB2E0E01A02ED9
:1033F0003C01952E0E018B2E30017E2E3E01742E47
:103400001301692E2E015E2E1301532E2201452E2B
:103410001E01392E24014F6666004F6E0054656D03
:103420007065726174757265004D3834004469735B
:1034300061626C6520537465707065727300473209
:10344000380A4D343820503130004D343820507215
:103450006F62652054657374004661646520486539
:1034600069676874004732380A473239004C65761C
:10347000656C2042656400473238004175746F20E6
:10348000486F6D65005072656865617420504C41ED
:1034900020456E64005072656865617420504C412F
:1034A0002042656400507265686561742041425332
:1034B0002042656400507265686561742041425322
:1034C00020456E6400436F6F6C646F776E004164DB
:1034D00076616E6365642053657474696E6773000A
:1034E000554E4C4F41442046494C414D454E5400A9
:1034F00046494C414D454E54204348414E474500B6
:103500004C6F61642053657474696E677300537403
:103510006F72652053657474696E677300526573CA
:10352000746F72652044656661756C7473005072C7
:1035300065686561742041425320436F6E66005098
:1035400072656865617420504C4120436F6E66005F
:1035500052756E6F75742053656E736F7200424CB6
:10356000546F756368004D37303220542564004D28
:1035700036303020423020542564004D3730322020
:103580003B2564004D37303120542564004D3730E1
:1035900032004D373031004D36303020423000504F
:1035A00075726765206D6F726500524553554D45C4
:1035B000204F5054494F4E533A005052494E5420D8
:1035C0005041555345440020204E6F7A7A6C653A3D
:1035D00020006F70656E005452494747455245447C
:1035E0000066696C616D656E74007A5F6D696E006E
:1035F000795F6D696E00785F6D696E005265706FFE
:103600007274696E6720656E6473746F7020737472
:10361000617475730A0020453A005761726E696ED5
:10362000673A20486F6D696E672042756D7020445F
:10363000697669736F72203C20310A000000704285
:10364000000070420000A04102020400000040009F
:103650000000400000803F00009A4300009A4300B1
:1036600000C843416D6178204500416D6178205A62
:1036700000416D6178205900416D6178205800410A
:103680002D54726176656C00412D526574726163D0
:103690007400416363656C0056652D4A65726B006A
:1036A000565A2D4A65726B0056592D4A65726B0049
:1036B00056582D4A65726B0050726F626520592012
:1036C0004F66667365740050726F62652058204FB4
:1036D00066667365740050726F6265205A204F668B
:1036E0006673657400416476616E6365204B0046C5
:1036F000616E205370656564004D61696E00466CB3
:103700006F77002568753A253032687500253032AC
:1037100068753A2530326875002D2D2D00503A001D
:1037200020202020202020003F2856296572626F2B
:103730007365206C6576656C20696D706C6175735E
:1037400069626C652028302D34292E0A005A2050D9
:10375000726F62652050617374204265640A005A7A
:103760002050726F6265205061737420426564005E
:10377000486F6D652058592066697273740A004855
:103780006F6D6520585920466972737400446576E0
:10379000696174696F6E0025533A20257300537474
:1037A000616E6461726420446576696174696F6EEC
:1037B0003A20002052616E67653A20004D65616EC7
:1037C0003A200046696E6973686564210A002072B8
:1037D000616E67653A2000207369676D613A200069
:1037E000206D65616E3A20003A207A3A2000206F01
:1037F000662000476F696E6720746F3A2058004357
:10380000570A00206469723A0020616E676C653A5D
:10381000005374617274207261646975733A004D6B
:10382000343820506F696E740025533A2025642F78
:10383000256400506F736974696F6E696E672074D8
:1038400068652070726F62652E2E2E0A003F4E75DD
:103850006D626572206F66206C65677320696E20EB
:103860006D6F76656D656E74206E6F7420706C611F
:10387000757369626C652028302D3135292E0A0058
:103880003F2028582C5929206F7574206F662062BC
:103890006F756E64732E0A003F53616D706C652006
:1038A00073697A65206E6F7420706C6175736962DC
:1038B0006C652028342D3530292E0A004D343820EF
:1038C0005A2D50726F626520526570656174616235
:1038D000696C69747920546573740A006E6F746939
:1038E0006669636174696F6E200063616E63656C05
:1038F000005072696E742041626F72746564004496
:1039000069736D6973730055492041626F72746504
:1039100064004D323520500A4D32340052657375C3
:103920006D65005549205061757365005061757370
:10393000696E672E2E2E00726573756D65003F00EF
:10394000436F6E66696775726174696F6E004D6F63
:1039500074696F6E00526573756D65205072696E83
:10396000740054756E650053746F70205072696EE8
:1039700074005061757365205072696E7400496EF1
:10398000666F2053637265656E00536F66742045E1
:103990006E6473746F7073005061726B696E672E22
:1039A0002E2E0000005761697420666F72006669F0
:1039B0006C616D656E74206368616E676500746F1D
:1039C000207374617274005761697420666F7200AD
:1039D00066696C616D656E7420756E6C6F616400F4
:1039E000004E6F7A7A6C652068656174696E670055
:1039F000506C6561736520776169742E2E2E00000E
:103A0000507265737320627574746F6E00746F20EA
:103A100068656174206E6F7A7A6C650000496E7318
:103A20006572742066696C616D656E7400616E64A8
:103A300020707265737320627574746F6E00746F9A
:103A400020636F6E74696E756500576169742066D6
:103A50006F720066696C616D656E74206C6F616475
:103A60000000507265737320427574746F6E007439
:103A70006F20726573756D65207072696E740000D9
:103A80005761697420666F72207072696E74007479
:103A90006F20726573756D652E2E2E00005761695B
:103AA0007420666F720066696C616D656E7420705B
:103AB00075726765000053657474696E677320538F
:103AC000746F7265640053657474696E6773205314
:103AD000746F7265642028004F46460A0046616490
:103AE00065204865696768742000426564204C65FC
:103AF00076656C696E6720004661696C6564207448
:103B00006F20656E61626C6520426564204C65764D
:103B1000656C696E670A00496E76616C6964206D38
:103B20006573682E0A0050726F62696E6720506F6D
:103B3000696E740025532025692F25690050726F26
:103B400062696E67206D65736820706F696E74209E
:103B500000202844525952554E29004732392041FD
:103B600075746F20426564204C6576656C696E677C
:103B7000003F20284C2C522C462C4229206F757473
:103B8000206F6620626F756E64732E0A0042616456
:103B9000205A2076616C75650A004E6F2062696C50
:103BA000696E65617220677269640A0020573A0085
:103BB000022062797465733B2063726320004E6F4C
:103BC00020454550524F4D2E0A00454550524F4D0D
:103BD000206461746173697A65206572726F722EF8
:103BE0000A002073746F7265642073657474696E63
:103BF0006773207265747269657665642028002099
:103C00002863616C63756C6174656429210A002006
:103C1000213D2000454550524F4D20435243206DD9
:103C200069736D61746368202D202873746F7265E9
:103C3000642920002053697A653A2000496E646542
:103C4000783A2000204D61726C696E3D56383029FB
:103C50000A00454550524F4D2076657273696F6E6C
:103C6000206D69736D617463682028454550524F1B
:103C70004D3D00454550524F4D20496E6974696174
:103C80006C697A65640A0048617264636F64656494
:103C90002044656661756C742053657474696E6741
:103CA00073204C6F616465640A003B200020204D46
:103CB000363033200020204D343132205300466905
:103CC0006C616D656E742072756E6F7574207365AE
:103CD0006E736F723A0020550046696C616D656EB7
:103CE00074206C6F61642F756E6C6F6164206C65FD
:103CF0006E677468733A0020204D393030204B00D5
:103D00004C696E65617220416476616E63653A004C
:103D100020204D3835312058005A2D50726F626581
:103D2000204F66667365740020204D333034205078
:103D30000020204D3330312050005049442073651D
:103D40007474696E67733A00204600204800202092
:103D50004D3134352053004D6174657269616C20BA
:103D600068656174757020706172616D65746572EB
:103D7000733A00204A00202047323920572049005A
:103D800020204D3432302053004175746F2042653D
:103D900064204C6576656C696E673A0020204D3270
:103DA0003036205800486F6D65206F666673657405
:103DB0003A0020204D323035204200416476616E59
:103DC0006365643A20423C6D696E5F7365676D653B
:103DD0006E745F74696D655F75733E20533C6D69E9
:103DE0006E5F66656564726174653E20543C6D6902
:103DF0006E5F74726176656C5F666565647261742E
:103E0000653E20583C6D61785F785F6A65726B3EF5
:103E100020593C6D61785F795F6A65726B3E205A0C
:103E20003C6D61785F7A5F6A65726B3E20453C6DE0
:103E300061785F655F6A65726B3E0020204D3230AD
:103E400034205000416363656C65726174696F6E04
:103E50002028756E6974732F7332293A20503C7094
:103E600072696E745F616363656C3E20523C72657B
:103E700074726163745F616363656C3E20543C746B
:103E8000726176656C5F616363656C3E0020204DF6
:103E90003230312058004D6178696D756D20416375
:103EA00063656C65726174696F6E2028756E6974E4
:103EB000732F7332293A0020204D323033205800BE
:103EC0004D6178696D756D206665656472617465B4
:103ED000732028756E6974732F73293A00537465C3
:103EE00070732070657220756E69743A002044000A
:103EF00020204D3230302053002044697361626CC1
:103F000065640A0046696C616D656E742073657442
:103F100074696E67733A0020204D31343920432094
:103F20003B20556E69747320696E2043656C73691C
:103F300075730A0020286D6D29002020473231203A
:103F40002020203B20556E69747320696E206D6DB2
:103F500000486F6D696E67204661696C656400009A
:103F600000484300004843000020410000A042F404
:103F70003DA042F43DA04296E3C7439AD9E343DC17
:103F8000050000DC050000DC050000B80B00002087
:103F90005A3A200020593A200042656420583A20BD
:103FA000005072696E7420506175736564005072C0
:103FB0006F62696E67204661696C65640A005072C1
:103FC0006F62696E67204661696C656400486F6D59
:103FD000652025732573257320466972737400620A
:103FE0007574746F6E00436F6E74696E7565004C06
:103FF0006F61642046696C616D656E742054004980
:104000006E736572742066696C616D656E74206193
:104010006E642073656E64204D3130380A00417241
:1040200074696C6C657279205369646577696E6434
:1040300065722058312052656164792E0050726992
:104040006E74696E672E2E2E00220A00556E6B6EFE
:104050006F776E20636F6D6D616E643A2022002071
:10406000436F756E7420583A004D31303620500041
:10407000310111241FBECFEFD1E2DEBFCDBF00E082
:104080000CBF13E0A0E0B2E0E4EBF8E802E00BBF05
:1040900002C007900D92A638B107D9F727E1A6E82C
:1040A000B3E001C01D92A431B207E1F710E2C9E309
:1040B000D0E200E006C021970109802FFE010F9495
:1040C000FE40C833D10780E00807A9F70F94972F67
:1040D0000D9458440C9400002F923F924F925F929F
:1040E0006F927F928F929F92AF92BF92CF92DF9208
:1040F000EF92FF920F931F93CF93DF93CDB7DEB76D
:10410000A6970FB6F894DEBF0FBECDBF2091C215A3
:104110002EA311E01093C215809121058D3409F46E
:10412000E8C3843511F40C943733873411F00C94C0
:104130003E33E0901F05F09020053BE1E316F104CB
:1041400009F487C1ECF494E0E916F10444F4A2E028
:10415000EA16F1040CF09DC0F7FE55C0C6C3B5E1E8
:10416000EB16F10411F40C944033EAE1EE16F1047D
:1041700009F46BC1F4E0EF16F10409F0B6C326C1EF
:104180002AE2E216F10409F4D0C26CF48DE1E816DB
:10419000F10409F47CC10CF476C1AEE1EA16F10435
:1041A00009F489C1A2C3BAE5EB16F10409F448C2C7
:1041B0006CF4F0E5EF16F10409F097C38FEF9FEF71
:1041C00090930B0280930A020C9440332BE5E21685
:1041D000F10409F439C23CE5E316F10409F085C3A2
:1041E000BAE92B2EB2E03B2E13EEE12E14E0F12EB5
:1041F000A7ECB5E1BB8FAA8F04EAC02E05E1D02E53
:1042000000E010E062C280911D05813011F00C9435
:104210004033E114F104C1F4809071029090720275
:10422000A0907302B090740280910C0290910D02E4
:10423000A0910E02B0910F028093710290937202CE
:10424000A0937302B09374020E94A48CE114F10451
:1042500081F48091710290917202A0917302B091E9
:10426000740280930C0290930D02A0930E02B093FF
:104270000F020E9450DCEF2811F00C944033809222
:10428000710290927202A0927302B09274020C9426
:10429000403380911D05813011F00C94403311E0C2
:1042A00082E0E816F10409F010E00E94A48C198263
:1042B0001A821B821C821D821E821F82188682E542
:1042C0000E94DD5F882309F44BC00E945D5F6B0193
:1042D0007C0120E030E0A9010F94113A882309F411
:1042E00055C08091C7159091C815A091C915B0917E
:1042F000CA158A8F9B8FAC8FBD8F8091CB15909103
:10430000CC15A091CD15B091CE158E8F9F8FA8A3FF
:10431000B9A38090921590909315A0909415B090A9
:10432000951540909615509097156090981570903F
:104330009915A50194016A8D7B8D8C8D9D8D0F94AF
:10434000113A81110C945333A30192016E8D7F8D2C
:1043500088A199A10F94113A8823C1F00C9453338A
:1043600089E40E94DD5F882331F00E945D5F6983EC
:104370007A838B839C838AE40E94DD5F882331F0FB
:104380000E945D5F6D837E838F83988720E030E09D
:10439000A90169817A818B819C810F94113A8111E5
:1043A0000C94073420E030E0A9016D817E818F817B
:1043B00098850F94113A81110C9407340E948F4B09
:1043C0008DE89BE00E94254A0C94403380E50E94D2
:1043D000DD5F882329F00E945DF16B017C0103C041
:1043E000C12CD12C760183E50E94DD5F882361F02A
:1043F0000E945D5F20E030E04AE754E40F94773A92
:104400000F947A426B017C010E94CBBA8091F00438
:10441000811105C060E084E89BE00E9474FC0E946A
:1044200008C2C60ED71EE81EF91E0E9408C2DC0193
:10443000CB018C199D09AE09BF09B7FD02C00C94D0
:10444000403380E00E94863BF0CF0E940E600C94C7
:1044500040330F94E52881110C9440338CE0EEE753
:10446000F2E0DE01119601900D928A95E1F760E08D
:1044700070E080E50E948E90BE016F5F7F4F0F94C9
:10448000400D0C9440330E94FFF50C9440330F9480
:10449000E52881110C9440338091EF04882311F4B6
:1044A0000C942F3460E08FE40E94F95F81110C942A
:1044B00040330C942F342091B0153091B1154091B8
:1044C000B2155091B3156091C7157091C8158091C0
:1044D000C9159091CA150F940741AB01BC0188E53D
:1044E0000E94747369837A838B839C832091B415B3
:1044F0003091B5154091B6155091B7156091CB1517
:104500007091CC158091CD159091CE150F940741E7
:10451000AB01BC0189E50E9474736D837E838F8338
:104520009887BE016B5F7F4FCE0101960F94F50D0A
:10453000882311F40C94403380E00E94EC450E94E3
:1045400026DF61E085E40E94F95F182F21E0482F03
:10455000BE016B5F7F4FCE0101960F9472296B01F4
:104560007C019B01AC010F94F94381115FC08980EC
:104570009A80AB80BC8020E030E0A901C501B40185
:104580000F94113A87FF05C027E137EB41E558EB5F
:1045900004C027E137EB41E558E3C501B4010F94AE
:1045A0000741AB01BC0189E99FE30E945E4B8D800E
:1045B0009E80AF80B88420E030E0A901C501B4013D
:1045C0000F94113A87FF05C027E137EB41E558EB1F
:1045D00004C027E137EB41E558E3C501B4010F946E
:1045E0000741AB01BC0184E99FE30E945E4B20E0E0
:1045F00030E0A901C701B6010F94113A87FF05C049
:1046000067E177EB81E598EB04C067E177EB81E543
:1046100098E3A70196010F940741AB01BC018FE815
:104620009FE30E945E4B8AE00E94113A0E940DDFD8
:10463000113011F40E940ABA0E9427E30C9440330F
:1046400010921E050C9440338FE080931E050C944D
:1046500040330E945D5F2B013C01133049F0D601CD
:104660002D913D914D915C910F9406412B013C01A0
:10467000EA8DFB8D2081318142815381C301B201DA
:104680000F9406414B015C012DEB37E346E855EBF7
:104690000F94674387FD21C02DEB37E346E855E3D0
:1046A000C501B4010F94113A1816BCF01F5FF4E075
:1046B000EF0EF11C2A8D3B8D2C5F3F4F3B8F2A8FD5
:1046C00034E0C30ED11C143031F1F10181911F018E
:1046D0000E94DD5F882351F3BCCF133051F4409228
:1046E000D3155092D4156092D5157092D61501E06D
:1046F000DDCFA5019401D7016D917D918D919C91A4
:104700000F940741F7016083718382839383812F24
:104710000E947CDBCBCF002321F083ED95E10E944A
:10472000DCBA0E9427E30C94403380911D05813050
:1047300011F00C94403389E40E94DD5FE82E882359
:1047400021F00E94595F082F01C000E08AE40E9416
:10475000DD5FF82E882321F00E94595F182F01C0D9
:1047600010E0EE2011F0053020F4FF2041F015306C
:1047700030F08BE69BE00E94254A0C94403380E1A8
:10478000E7ECF5E1A2E9B5E101900D928A95E1F738
:10479000EE2019F1602F000F770B880B990B0F9407
:1047A000183A2091D3043091D4044091D50450910B
:1047B000D6040F94773A2091DB043091DC044091C9
:1047C000DD045091DE040F940741609392157093BD
:1047D00093158093941590939515FF2019F1612FEF
:1047E000110F770B880B990B0F94183A2091D7046F
:1047F0003091D8044091D9045091DA040F94773A5B
:104800002091DF043091E0044091E1045091E204F2
:104810000F940741609396157093971580939815A0
:104820009093991560E080E50E94F95F8823C1F1BB
:10483000EE20D1F02091B0153091B1154091B21514
:104840005091B315609192157091931580919415C4
:10485000909195150F94064160939215709393155E
:104860008093941590939515FF20D1F02091B41565
:104870003091B5154091B6155091B71560919615C8
:104880007091971580919815909199150F94064104
:10489000609396157093971580939815909399153A
:1048A00040E050E0BA0186E40E9474736B017C0121
:1048B00020E030E0A9010F94674318164CF420E083
:1048C00030E040E752E4C701B6010F94014203C053
:1048D00060E070E0CB0169837A838B839C83CE0197
:1048E00001960E9447E00C9440330F94CD270C941E
:1048F000403380911F05909120058B39910509F473
:104900008BC40CF0C5C08936910509F48AC30CF03C
:1049100059C08B34910509F4FEC244F58F319105DD
:1049200009F41AC27CF48131910509F401C22CF416
:10493000029708F4B3C10C943433429709F4BBC412
:104940000C9434338B32910509F4CAC22CF48A9743
:1049500009F4ADC20C9434338033910509F4C4C218
:104960008934910509F4C4C20C943433833591051C
:1049700009F499C4BCF48D34910509F4D4C20CF443
:10498000CEC28135910509F479C48235910511F0C3
:104990000C94343380911E058F7D806180931E05B9
:1049A0000C9440338535910509F4B2C40CF483C4EA
:1049B0008C35910509F4D1C48836910509F4B7C244
:1049C0000C9434338337910509F4B8C53CF58E3621
:1049D000910509F465C38CF48B36910509F456C32F
:1049E0000CF433C38C36910511F40C9440338D369E
:1049F000910509F4C0C20C9434338037910511F449
:104A00000C9440330CF45FC38137910509F4A6C3BD
:104A10008237910509F443C50C94343389379105E5
:104A200009F457C6ECF48637910509F413C634F43B
:104A30008537910509F4FBC50C943433873791050C
:104A400009F444C68837910511F00C94343381E0A1
:104A500080939A04809399040E94F7E30C94403366
:104A60008C38910509F4A4C34CF48D37910511F0ED
:104A70000C9434330E94C08F0C94403381399105DB
:104A800009F42EC68639910509F485C60C94343391
:104A90008139A1E09A0711F40C94FC2F0CF06AC044
:104AA0008D3D910511F40C94712D54F58C3C9105BC
:104AB00009F498C7ACF4883C910509F4A9C634F40C
:104AC0008E3B910509F493C30C943433893C9105D2
:104AD00009F4E5C68B3C910509F407C70C943433FF
:104AE0008E3C910509F4B5C70CF4B0C7833D910520
:104AF00009F4CDC78C3D910509F4CCC70C9434332F
:104B00008D32E1E09E0711F40C94C22EDCF4883162
:104B100021E0920711F40C94132E3CF4823E91058F
:104B200011F40C94C72D0C9434338232A1E09A070F
:104B300011F40C94AA2E8C32914011F40C94AD2EE9
:104B40000C9434338F32E1E09E0711F40C94F92F6A
:104B500014F40C94B52F803321E0920711F40C94D7
:104B6000422F8039914011F00C9434330E94CBBA1B
:104B70000C944033873FA1E09A0711F40C94E7307E
:104B80000CF047C0853AE1E09E0711F40C94103018
:104B90001CF58A3921E0920711F40C9440336CF42F
:104BA0008239914011F00C9434330F94EC0D0E9433
:104BB0000ABA0E9427E30C9440338C39B1E09B077A
:104BC00011F40C940630843A914011F00C94343373
:104BD0000F9489140C944033843FF1E09F0711F443
:104BE0000C94E1303CF48C3A914011F40C948530F3
:104BF0000C943433853FA1E09A0711F40C94E4300F
:104C0000863F914011F00C9434330F9457220C944A
:104C100040338D3BE2E09E0711F40C94FC31DCF450
:104C20008F3322E0920711F40C9400313CF4883F5A
:104C3000914011F40C94EF300C9434338835B2E089
:104C40009B0711F40C9481318B35924011F40C9434
:104C500084310C9434338C36F3E09F0711F40C94B8
:104C600040337CF48E3B32E0930711F40C94FF3117
:104C70008335934011F00C9434330E94DE790C9408
:104C800040338438B3E09B0711F40C94BE32873E66
:104C9000934011F40C9426330C94343380E50E9435
:104CA000DD5F882329F00E945DF16B017C0103C068
:104CB000C12CD12C760183E50E94DD5F882361F051
:104CC0000E945D5F20E030E04AE754E40F94773AB9
:104CD0000F947A426B017C010E94CBBA8091D1047F
:104CE0009091D204009721F061E00E9436FD05C04A
:104CF00060E088E59BE00E9474FC80911F05909124
:104D00002005892B19F060E57BE002C068E47BE0B8
:104D100020E030E046EE5FE382E00E949A4A40E005
:104D2000C701B6010E942C400F94DB270C9440333E
:104D30008091CD0484FF02C00C9432348091CF0462
:104D400087FF02C00C9432348091D004837011F03C
:104D50000C9432340C944F340F94960A7B018C01DE
:104D600020E831E541E050E00F946740C9016DE66D
:104D700071E00F94D6404B015C01C801B70120E1FE
:104D80003EE040E050E00F946740CA01B90128E1DD
:104D900030E040E050E00F946740762E672EC62E3C
:104DA000D72EACE32A2E312C412C512CC801B7014F
:104DB000A20191010F946740F62EE72ECA01B901B6
:104DC000A20191010F946740CB018E010F5F1F4F2D
:104DD0008114910499F0EF92FF927F936F936F92F9
:104DE0007F92BF92AF929F928F928EE19BE09F93B2
:104DF0008F931F930F930F94A93913C0A114B1047B
:104E0000B1F0EF92FF927F936F936F927F92BF9278
:104E1000AF9282E29BE09F938F931F930F930F9427
:104E2000A9390FB6F894DEBF0FBECDBF30C0CD2874
:104E300079F0EF92FF927F936F936F927F9286E269
:104E40009BE09F938F931F930F930F94A939E9CF02
:104E5000892B69F0EF92FF927F936F938AE29BE038
:104E60009F938F931F930F930F94A939DACFEF92EB
:104E7000FF928EE29BE09F938F931F930F930F946B
:104E8000A9390F900F900F900F900F900F9060E046
:104E9000C8010E9436FD0E945F4CB80182E39BE08E
:104EA0000E947C4B8AE00E94113A0C9440336DE0E2
:104EB00070E080E50E94EA5F8C0197FF02C00C94CD
:104EC0004033E82E60E089E40E94F95F81110C9480
:104ED0005E34802F0E94A437811176C60C945E3414
:104EE0000E94D0910C9440330E946DF10C94403399
:104EF00080E50E94945F882311F40C9440330E9453
:104F0000355F90E08536910510F084E690E080935F
:104F1000CC040C9440330F94E50A0C9440330F9466
:104F2000090B0C9440330F941E0B0C94403380916A
:104F3000680E83FF02C00C9440330E94558D87FF9A
:104F400002C00C94403383E50E94DD5F882379F032
:104F50000E945D5F0F947342CB010F948E180F94E3
:104F6000452F811104C00F941E0B0F94DB270F9463
:104F7000582F0C9440338091680E83FF02C00C942C
:104F800040330E94558DF82E87FF02C00C944033A9
:104F900083E50E94DD5F082F811106C082E50E9433
:104FA000DD5F182F882381F10E945D5F0F947342AB
:104FB000CB010F948E180F94452F882311F40C9475
:104FC00095340F94E50A6091ED157091EE15072E5A
:104FD000000C880B990B0F94183A4B015C01409020
:104FE000E9155090EA156090EB157090EC15A3014F
:104FF00092010F946743181614F40C94B5340023EF
:1050000011F40C949B3411E00F94582F112311F4D8
:105010000C94403340E0602F8F2D0F943E1A0C9477
:1050200040330E94558D182F87FD0AC08CEF96E003
:105030000E94254A812F0E94AD9C8AE00E94113A6D
:105040002EA12093C2150C94143660E080E50F94D5
:10505000A40F81110C94403381E40E94945F882353
:1050600021F06091F00770E002C06FEF70E083E51F
:105070000E948E908F3F910519F010F08FEF90E015
:10508000BC0180E00F94D12C0C94403360E080E5AB
:105090000F94A40F60E070E00F94D12C0C94403377
:1050A0008EE40E94DD5F882311F40C9440330E944B
:1050B000255F6093C8047093C9048093CA049093D9
:1050C000CB040C94403383E50E94945F882331F035
:1050D00060E083E50F94A40F8093680E0E945F4CFC
:1050E00081EF9AE00E94254A8091680E882369F139
:1050F000F2EBEF2EFBE0FF2E00E010E020E08091CD
:10510000680E90E0A0E0B0E0002E04C0B695A79530
:10511000979587950A94D2F780FF0EC0DD24D3942B
:10512000D20E222319F08CE20E94113AF7018591E8
:1051300094910E94254A2D2D0F5F1F4F32E0E30E00
:10514000F11C05301105D9F604C081ED9DE00E94E7
:10515000254A8AE00E94113A0C94403383E50E946C
:10516000DD5F882381F00E94355F282F30E02D33EA
:10517000310524F4809309020C9440338CE380932E
:1051800009020C9440330E945F4CC0900902D12C5C
:10519000E12CF12C8AEE9AE00E94254A4AE0C701F0
:1051A000B6010E94613A8AE00E94113A0C944033A1
:1051B0008091680E83FF02C00C94403383E50E9407
:1051C000DD5F882311F40C9440330E945D5F0F94DF
:1051D0007342CB010E94D65E0F94452F81110C942F
:1051E00040330F941E0B0F94DB270C9440338091B7
:1051F000680E83FF02C00C94403383E50E94DD5F9C
:10520000182F81110C94B83482E50E94DD5F811162
:105210000C94B8340C94403380E50E94945F88234A
:1052200019F01093B00402C01092B00483E50E94FC
:10523000DD5F882311F40C9440330E94355F182FF2
:1052400090E0CD970CF01CE31093AF040E9408C2CD
:105250006B017C01212F30E0A8EEB3E00F94BB403E
:10526000C60ED71EE81EF91EC092AB04D092AC0445
:10527000E092AD04F092AE040C9440330E94579D2E
:105280000F941E0B0E948BBC0E94A19068EE73E0ED
:1052900080E090E00E945B4960E08FEA9AE00E9423
:1052A00074FC0C94403380911E058F7E8062809345
:1052B0001E050C94403383E50E94DD5F8823A1F036
:1052C0000E945D5F20E030E04AE754E40F94773AB3
:1052D0000F947A426093050270930602809307024E
:1052E000909308020C9440338091CD0484FF02C057
:1052F0000C94E7348091CF0487FF02C00C94E7340C
:105300008091D004837011F00C94E7340C9419351B
:1053100083E50E94945F882311F40C9440330E942B
:1053200008C26093190570931A0580931B0590932A
:105330001C050E945D5F20E030E04AE754E40F94D2
:10534000773A0F947A426093A7047093A8048093ED
:10535000A9049093AA040C9440330E94558D87FFB2
:1053600002C00C9440339091CD0494FD04C0909100
:10537000CF0497FF0AC07AE9C72E72E0D72EE9E67C
:10538000EE2EEEE0FE2E10E00AC09091D004937055
:1053900091F7682F81E00E9495910C944033D601DB
:1053A0008D916D010E94DD5F882309F46DC013307B
:1053B00009F063C00E945D5F4B015C0120E030E0BA
:1053C00040EA51E40F94113A87FF4EC0A5019401C1
:1053D0006091890E70918A0E80918B0E90918C0E47
:1053E0000F9401422B013C019B01AC016091E80745
:1053F0007091E9078091EA079091EB070F94773A53
:105400006093E8077093E9078093EA079093EB07AE
:10541000A30192016091990E70919A0E80919B0E5A
:1054200090919C0E0F94773A6093990E70939A0E18
:1054300080939B0E90939C0E6091D4077091D5073A
:105440008091D6079091D7070F94163AA301920145
:105450000F94773A0F947A426093D4077093D507EC
:105460008093D6079093D7078092890E90928A0EE8
:10547000A0928B0EB0928C0E07C00E945D5FF70168
:10548000648B758B868B978B1F5FF4E0EF0EF11C9E
:10549000143009F084CF0E94A7BA0C94403382E5FF
:1054A0000E94945F882309F43FC00E94DEE08E01D1
:1054B0000F5F1F4F80E1D8011D928A95E9F7809117
:1054C0009B0490919C04A0919D04B0919E048983BB
:1054D0009A83AB83BC8380919F049091A004A09198
:1054E000A104B091A2048D839E83AF83B88780917D
:1054F000A3049091A404A091A504B091A604898767
:105500009A87AB87BC8783E00E9461BC6D877E87EA
:105510008F87988BC8010E94C7BCC8010E94C3E254
:105520000F94302D0C94403387EC95E10E94C3E238
:1055300085E996E10F94FC2C0C94403387EC99E0BC
:105540000E94254A60E087EB99E00E948A8C60E027
:1055500082EA99E00E948A8C61E087EB9DE20E94DA
:105560008A8C61E087E999E00E948A8C61E087E893
:1055700099E00E948A8C60E08EE799E00E948A8C14
:1055800061E084E799E00E948A8C61E08AE699E014
:105590000E948A8C61E082E699E00E948A8C61E038
:1055A00084E599E00E948A8C61E086E499E00E949B
:1055B0008A8C60E087E399E00E948A8C60E089E24F
:1055C00099E00E948A8C60E083E199E00E948A8CD5
:1055D00061E082E099E00E948A8C61E083EF98E0CC
:1055E0000E948A8C60E08CEE98E00E948A8C60E0D9
:1055F00087ED98E00E948A8C60E089EC98E00E9438
:105600008A8C61E086EB98E00E948A8C61E089EAEE
:1056100098E00E948A8C61E08CE998E00E948A8C74
:1056200060E088E898E00E948A8C0C944033809176
:10563000D1049091D204009749F0FC0120812223EB
:1056400029F060E00E9436FD0C9440330F94DB2774
:105650000C9440330091D1041091D20494E0F12CC9
:1056600040E0915031F1D8018C91282F2B7F2134CB
:1056700029F411962C912133E1F408C08035C9F446
:10568000F801818180538A3048F013C0813421F0C1
:10569000853421F441E002C0FF24F39498012E5F89
:1056A0003F4F89012F5F3F4FD8018C918032C9F362
:1056B000D8CF41110E945F4CFF2021F084E898E090
:1056C0000E94254AC8010E94653BDAC70E949BE3FD
:1056D000D7C710929A04109299040E94F7E3D0C79A
:1056E00060E070E083E50E94EA5F8C0111270230E0
:1056F00011053CF00E948F4B82E698E00E94254AFB
:10570000BFC788E40E94DD5F8823A9F00E94595F2B
:105710008A3A91053CF08E31B1E09B072CF08DE187
:1057200091E002C08AEA90E0F801EE0FFF1FEB560D
:10573000FB4F9183808386E40E94DD5F882381F0A4
:105740000E94595F97FD07C08F3F910529F024F013
:105750008FEF90E001C080E0F801ED56FB4F8083B1
:1057600082E40E94DD5F882309F48AC70E94595FA2
:105770008530910534F08F3691052CF08EE690E05F
:1057800002C085E090E0000F111FF801E157FB4FC8
:105790009183808375C782E40E94945F882351F0CF
:1057A00080918D0490918E04892B31F00E94355F99
:1057B000182F03C010E001C01FEF85E50E94945F21
:1057C000882351F080918D0490918E04892B31F0C3
:1057D0000E94355F082F03C000E001C00FEF82E593
:1057E0000E94945F882349F080918D0490918E04EB
:1057F000892B29F00E94355F03C080E001C08FEF44
:1058000089830A831B83CE0101960E94AB4238C76D
:105810000E94558D182F87FD33C700918C0484E4B6
:105820000E94DD5F882311F40C941C350E945D5F9B
:105830006B017C0120E030E0A9010F94113A88232C
:1058400041F124E01202F0011124E857FB4FC0821D
:10585000D182E282F38220E030E0A90160918804E5
:105860007091890480918A0490918B040F94113A6D
:1058700081110CC080E090E0A0EEBFE3809388042B
:1058800090938904A0938A04B0938B0401E00C9454
:105890001C3580E080938C040E94F4B7F1C60E940E
:1058A000558D87FDEDC63AE9E32E32E0F32E09E689
:1058B0001EE049E7C42E4EE0D42ED7018D917D0124
:1058C0000E94945F882359F00E945D5F0F947A4292
:1058D000F80160837183828393830E9460BA0C5FB6
:1058E0001F4FC016D10649F7CBC60E94558D87FDC4
:1058F000C7C69AE9892E92E0992E29E6A22E2EE0BB
:10590000B22E712CD4018D914D010E94945F882399
:1059100009F460C00E945D5F7B018C0180E1EAE8D0
:10592000F2E0DE01119601900D928A95E1F7872D44
:10593000B3E0B71508F483E0C82ED12C2DEC3CEC75
:105940004CEC5DE3B701C8010F94113A87FF02C028
:105950000C940736F601EE0FFF1FEE0FFF1F21E03C
:1059600030E02C0F3D1FE20FF31F4080518062801A
:1059700033809201462D532DB701C8010F94674320
:10598000181614F40C940F369701A801B701C8013A
:105990000F94113A8823B9F0F601E656FD4F808145
:1059A0000E94113A83E598E00E94254A89E598E033
:1059B0000E94254AA701B80186E498E00E945E4B48
:1059C0008AE00E94113AC701D801F50184A395A38A
:1059D000A6A3B7A37394F4E0AF0EB11C24E0721237
:1059E00091CF4EC68091CE0487FF02C00C94223521
:1059F0008091CF048E7011F00C94223540919D0E51
:105A000050919E0E60919F0E7091A00E86E398E0DB
:105A10000E945E4B4091A10E5091A20E6091A30E88
:105A20007091A40E83E398E00E945E4B4091A50E16
:105A30005091A60E6091A70E7091A80E8CEF9FE377
:105A40000E945E4B8AE00E94113A1AC60E94F4CE70
:105A500017C61CE7E12E14E0F12E10E088E5810F57
:105A60000E94945F882359F00E945D5FD7016D9377
:105A70007D938D939C931397812F0E947CDB1F5FF6
:105A8000B4E0EB0EF11C133049F70C9491230E9403
:105A9000A690F6C583E50E94DD5F882331F00E9461
:105AA000595F90930402809303028091CD049091FA
:105AB000CE04A091CF04B091D004892B8A2B8B2BDC
:105AC00009F0DEC560910302709104028FE298E054
:105AD0000E946F4B85E20E94113A8AE00E94113ABF
