:100000000C94560F0C94870F0C94870F0C94870F49
:100010000C94870F0C94870F0C94870F0C94870F08
:100020000C94870F0C94870F0C94870F0C94870FF8
:100030000C94870F0C94870F0C94870F0C94870FE8
:100040000C94870F0C94278F0C94870F0C94870FB8
:100050000C94870F0C94870F0C94C23B0C94C467CC
:100060000C94870F0C94EB2F0C94E12F0C94870FBA
:100070000C94870F0C94870F0C94870F0C94870FA8
:100080000C94CE290C94870F0C94870F0C94870F37
:100090000C94870F0C94870F0C94870F0C94870F88
:1000A0000C94870F0C94870F0C94A0290C94870F45
:1000B0000C94870F0C94870F0C94870F0C94722963
:1000C0000C94870F0C94870F0C94870F0C94870F58
:1000D0000C94870F0C94870F0C94870F0C94870F48
:1000E0000C94870FC165C465B365B765BD65FB65D5
:1000F000C865CC65D265D665DA65E065E465E86516
:10010000FB65EE65F265F665DE66E366E866F26657
:10011000FC66756706670E67166720672A6734678F
:1001200043674D677567576761676B67084AD73BD9
:100130003BCE016E84BCBFFDC12F3D6C74319ABDB6
:1001400056833DDA3D00C77F11BED9E4BB4C3E91DA
:100150006BAAAABE000000803F05A84CCDB2D44EC9
:10016000B93836A9020C50B9918688083CA6AAAACB
:100170002ABE000000803F000C94D2650C94DA6522
:100180000C94FB650C946B670C9416670C94C1651A
:100190000C94C4650C9420670C94BD650C94F665B2
:1001A0000C9461670C94E8650C94C8650C94E8663F
:1001B0000C9443670C942A670C94E4650C94E366F2
:1001C0000C9406670C94F2660C947FA10C9434672F
:1001D0000C940E670C9475670C94B7650C94FC66D0
:1001E0000C94E0650C94CC650C94D6650C94B365C6
:1001F0000C944D670C94F2650C9457670C94DE6672
:100200000C94EE654E414E494E495459494E46CDE7
:10021000CCCC3D0AD7233C17B7D13877CC2B3295BD
:1002200095E6241FB14F0A000020410000C842009B
:10023000401C4620BCBE4CCA1B0E5AAEC59D742045
:10024000573A00434F4D4D554E49434154494F4E47
:100250000044525952554E004552524F5253004994
:100260004E464F004543484F006F6B002028302D0D
:10027000313029002076616C7565206F7574206FB0
:10028000662072616E676500416476616E63652009
:100290004B3D003F5A206F7574206F662072616E6F
:1002A00067652028003F59206F7574206F662072A3
:1002B000616E676520282D0020746F20003F582054
:1002C0006F7574206F662072616E676520282D003F
:1002D00050726F6265204F666673657420580045E2
:1002E0004550524F4D204F4B0A00546F6F206661AE
:1002F000722066726F6D207265666572656E6365E9
:1003000020706F696E740A004D34323120696E635B
:100310006F727265637420706172616D657465726D
:100320002075736167650A006469730043290A00D8
:1003300061626C656420286D696E2074656D702043
:1003400000436F6C64206578747275646573206116
:1003500072652000496E76616C69642065787472FC
:10036000756465720A0020643A0020693A002070C2
:100370003A0050726F6265204F6666736574205A4A
:100380000050726F6265204F66667365745A3A203A
:1003900000206F7574206F662072616E67650A00B9
:1003A00020536572766F200020466C6F773A2000EC
:1003B00046523A0020590020204D61783A20002012
:1003C000204D696E3A2000536F667420656E647329
:1003D000746F70733A20005741524E494E472120A6
:1003E0004C6F77205A204A65726B206D6179206CC2
:1003F00065616420746F20756E77616E746564202A
:100400007061757365732E0A0020540020520041FC
:100410006363656C65726174696F6E3A2050002F7A
:100420002F20004348414D4245525F54454D5045B1
:10043000524154555245004D4F54494F4E5F4D4F18
:1004400044455300544845524D414C5F50524F541F
:10045000454354494F4E004155544F5245504F5219
:10046000545F53445F5354415455530050524F4DC1
:1004700050545F535550504F525400454D455247CC
:10048000454E43595F5041525345520043415345F5
:100490005F4C494748545F4252494748544E455380
:1004A0005300544F47474C455F4C4947485453000D
:1004B000534F4654574152455F504F5745520042A3
:1004C00055494C445F50455243454E54004C4556A7
:1004D000454C494E475F44415441005A5F50524F8A
:1004E0004245004155544F4C4556454C00505249E9
:1004F0004E545F4A4F420050524F475245535300AB
:100500004155544F5245504F52545F54454D500041
:10051000564F4C554D455452494300454550524F56
:100520004D0042494E4152595F46494C455F545235
:10053000414E534645520053455249414C5F584F36
:100540004E5F584F4646004649524D574152455F0F
:100550004E414D453A4D61726C696E20322E302EFF
:10056000352E3320284769744875622920534F552A
:100570005243455F434F44455F55524C3A6874744B
:1005800070733A2F2F6769746875622E636F6D2FD1
:100590004D61726C696E4669726D776172652F4D3F
:1005A00061726C696E2050524F544F434F4C5F56EE
:1005B000455253494F4E3A312E30204D4143484920
:1005C0004E455F545950453A5448694E4B33642068
:1005D00058312045585452554445525F434F554E6B
:1005E000543A3120555549443A6365646532613265
:1005F000662D343161322D343734382D3962313241
:100600002D6335356336326633363766660A004DFC
:100610003131332053004D313132205368757464C9
:100620006F776E006F66660044454255473A00504A
:10063000726F7465637465642050696E0A00496E58
:1006400076616C69642050696E204D6F64650A00A4
:1006500025697920256964202569682025696D2030
:10066000256973005072696E742074696D653A2053
:10067000004D65736820706F696E742063616E6EE3
:100680006F74206265207265736F6C7665640A0012
:100690005A2050726F626520506173742042656405
:1006A0000A00486F6D652058592066697273740A94
:1006B00000000000C00000A0C00000000064025F55
:1006C000025802510243020000A0420000A0420072
:1006D00000A04100009C4300809D430000C843FFF0
:1006E000FFFF4572726F722077726974696E6720BE
:1006F000746F20454550524F4D210A006275737941
:100700003A2070617573656420666F7220696E703F
:1007100075740A00627573793A2070617573656447
:1007200020666F7220757365720A00627573793A7C
:100730002070726F63657373696E670A00212120F0
:100740004B494C4C20636175736564206279207459
:100750006F6F206D75636820696E6163746976657B
:100760002074696D65202D2063757272656E74202A
:10077000636F6D6D616E643A20004E6F2043686553
:10078000636B73756D2077697468206C696E652082
:100790006E756D6265722C204C617374204C696EAD
:1007A000653A2000636865636B73756D206D6973CE
:1007B0006D617463682C204C617374204C696E65A4
:1007C0003A20004C696E65204E756D626572206935
:1007D00073206E6F74204C617374204C696E6520B9
:1007E0004E756D6265722B312C204C617374204CF8
:1007F000696E653A20004D313130005072696E7477
:1008000065722068616C7465642E206B696C6C285D
:10081000292063616C6C6564210A006563686F3A26
:10082000004572726F723A00363726033C3D380E2F
:100830002E303E1324221E1A1C1808440A074308AF
:100840000907000124F4D43050C38E20C2A24017FF
:10085000828B7011127A910D816CD90AA861E1081E
:10086000C7586607615143061E4B5D05C145A70485
:100870001A411104093D9803713931034036DB02F6
:1008800065339102D4305402802E1D02632CEE0198
:10089000752AC501B028A001102781018F256401A8
:1008A0002B244B01E0223401AC211F018D200D01CE
:1008B000801FFC00841EED00971DDF00B81CD200D5
:1008C000E61BC600201BBC00641AB200B219A800C7
:1008D0000A19A0006A189900D117910040178B00DF
:1008E000B516840031167E00B31579003A157300F1
:1008F000C7146F0058146A00EE1366008813630073
:1009000025135E00C7125B006C12570015125400CD
:10091000C111510070114F0021114B00D610490038
:100920008D1047004610440002104200C00F4000E6
:10093000800F3E00420F3C00060F3B00CB0E3800FC
:10094000930E37005C0E3500270E3400F30D320095
:10095000C10D3100900D3000600D2E00320D2D00C4
:10096000050D2C00D90C2B00AE0C2900850C29009C
:100970005C0C2700350C27000E0C2600E80B240029
:10098000C40B2400A00B23007D0B23005A0B210075
:10099000390B2100180B2000F80A1F00D90A1E008D
:1009A000BB0A1E009D0A1D00800A1D00630A1C0070
:1009B000470A1B002C0A1B00110A1A00F7091A002B
:1009C000DD091900C4091900AB09190092091700C3
:1009D0007B091800630917004C0916003609160038
:1009E000200916000A091500F5081500E008140092
:1009F000CC081400B8081400A408140090081300D0
:100A00007D0812006B0813005808120046081200F7
:100A10003408110023081100120811000108110008
:100A2000F0071000E0071000D0071000C00710000A
:100A3000B0070F00A107100091070E0083070F00F9
:100A400074070F0065070E0057070E0049070E00D8
:100A50003B070D002E070E0020070D0013070D00A9
:100A600006070D00F9060C00ED060D00E0060C006F
:100A7000D4060C00C8060C00BC060C00B0060C0026
:100A8000A4060B0099060C008D060B0082060B00D5
:100A900077060B006C060B0061060A0057060B0078
:100AA0004C060A0042060A0038060A002E060A0012
:100AB00024060A001A060A001006090007060A00A2
:100AC000FD050900F4050900EB050900E205090030
:100AD000D9050900D0050900C7050900BE050900B0
:100AE000B5050800AD050800A50509009C0508002E
:100AF000940508008C050800840508007C050800A2
:100B0000740508006C050700650508005D05070011
:100B1000560508004E050700470507004005080078
:100B200038050700310507002A05070023050700DF
:100B30001C050600160507000F050700080506003E
:100B400002050700FB040600F5040700EE0406009A
:100B5000E8040600E2040700DB040600D5040600F2
:100B6000CF040600C9040600C3040600BD04060045
:100B7000B7040600B1040500AC040600A604060094
:100B8000A00405009B0406009504050090040600DF
:100B90008A04050085040500800406007A04050027
:100BA00075040500700405006B040500660405006B
:100BB000610405005C0405005704050052040500AB
:100BC0004D04050048040500430405003E040400EC
:100BD0003A04050035040500300404002C04050027
:100BE00027040400230405001E0404001A04040062
:100BF00016040500110404000D0404000904050096
:100C00000404040000040400FC030400F8030400CE
:100C1000F4030400F0030400EC030400E803040000
:100C2000E4030400E0030400DC030400D803040030
:100C3000D4030400D0030400CC030400C803030061
:100C4000C503030024F404D9201BC40C5C0E9804D3
:100C5000C4095F0265077101F405F900FB04B300E4
:100C600048048700C1036900580355000303450089
:100C7000BE023A008402310053022A0029022500F4
:100C800004022000E4011C00C8011900AF01170094
:100C9000980114008401130071011000610110001B
:100CA00051010E0043010D0036010B002B010B001A
:100CB00020010B00150109000C01090003010800C7
:100CC000FB000800F3000800EB000700E40006004A
:100CD000DE000600D8000600D2000600CC000500A9
:100CE000C7000500C2000500BD000400B9000400F3
:100CF000B5000400B1000400AD000400A900040028
:100D0000A5000300A20003009F0004009B00030055
:100D10009800030095000200930003009000030078
:100D20008D0002008B000300880002008600020094
:100D300084000300810002007F0002007D000200A9
:100D40007B000200790002007700010076000200BB
:100D50007400020072000100710002006F000200C6
:100D60006D0001006C0002006A00010069000200D1
:100D700067000100660001006500010064000200D8
:100D80006200010061000100600001005F000200DC
:100D90005D0001005C0001005B0001005A000100E1
:100DA00059000100580001005700010056000100E1
:100DB00055000100540001005300000053000100E1
:100DC0005200010051000100500001004F000100DD
:100DD0004E0000004E0001004D0001004C000100DB
:100DE0004B0000004B0001004A00010049000100D7
:100DF00048000000480001004700010046000000D4
:100E000046000100450000004500010044000100CB
:100E100043000000430001004200000042000100C6
:100E20004100000041000100400001003F000000BF
:100E30003F0001003E0000003E0001003D000000B8
:100E40003D0001003C0000003C0000003C000100AF
:100E50003B0000003B0001003A0000003A000100A6
:100E6000390000003900010038000000380000009F
:100E70003800010037000000370001003600000094
:100E8000360000003600010035000000350000008B
:100E9000350001003400000034000000340001007F
:100EA0003300000033000000330001003200000076
:100EB000320000003200010031000000310000006B
:100EC000310001003000000030000000300001005F
:100ED0002F0000002F0000002F0000002F00010055
:100EE0002E0000002E0000002E0001002D0000004A
:100EF0002D0000002D0000002D0001002C0000003E
:100F00002C0000002C0000002C0001002B00000031
:100F10002B0000002B0000002B0001002A00000025
:100F20002A0000002A0000002A0001002900000019
:100F3000290000002900000029000000290001000C
:100F40002800000028000000280000002800000001
:100F500028000100270000002700000027000000F3
:100F600027000000270001002600000026000000E6
:100F700026000000260000002600010025000000D9
:100F800025000000250000002500000025000000CD
:100F900025000100240000002400000024000000BF
:100FA00024000000240001002300000023000000B2
:100FB00023000000230000002300000023000000A5
:100FC0002300010022000000220000002200000097
:100FD0002200000022000000220001002100000089
:100FE000210000002100000021000000210000007D
:100FF000210000002100010020000000200000006E
:101000002000000020000000200000002000000060
:1010100020000000200001001F0000001F00000051
:101020001F0000001F0000001F0000001F00000044
:101030001F0001001E0000001E0000001E00000036
:101040001E000000232C0000B822000056180000EB
:101050003A0F0000B8080000B1040000710200005F
:101060003E01000020436F756E7420583A004265BF
:101070006400453100626564002C207379737465E7
:101080006D2073746F7070656421204865617465AC
:10109000725F49443A200048656174696E67204672
:1010A00061696C65640048656174696E672066619A
:1010B000696C656400202D20496E76616C6964203E
:1010C0006578747275646572206E756D62657220E4
:1010D000210A00544845524D414C2052554E41572B
:1010E000415900546865726D616C2052756E61776C
:1010F0006179004572723A204D415854454D500077
:101100004D415854454D502074726967676572654A
:1011100064004572723A204D494E54454D50004D81
:10112000494E54454D502074726967676572656415
:1011300000202F000070012C0190012701B0012236
:1011400001C0011D01F00118011002130130020E4F
:10115000016002090190020401C002FF000003FACD
:10116000004003F5008003F000D003EB002004E60C
:10117000007004E100E004DC004005D700C005D2A7
:10118000004006CD00D006C8008007C3003008BE6E
:1011900000F008B900C009B400B00AAF00B00BAA53
:1011A00000D00CA500000EA000500F9B00C01096B0
:1011B000005012910000148C00C0158700B01782F7
:1011C00000B0197D00D01B7800001E730040206E17
:1011D0000090226900F024640040275F0090295AA3
:1011E00000E02B5500102E500020304B00103246EE
:1011F00000E033410090353C001037370070383242
:1012000000A0392D00B03A2800A03B2300603C1E0E
:1012100000103D1900903D1400103E0F00703E0A72
:1012200000C03E0500003F0000403FFBFF803FF64E
:10123000FFC03FF1FF2062797465733B20637263E6
:10124000200053657474696E67732053746F726500
:1012500064202800454550524F4D206461746173ED
:10126000697A65206572726F722E0A002073746F3E
:101270007265642073657474696E67732072657437
:10128000726965766564202800202863616C637547
:101290006C6174656429210A0020213D20004545C8
:1012A00050524F4D20435243206D69736D617463FA
:1012B00068202D202873746F7265642920002053E4
:1012C000697A653A2000496E6465783A2000204DBD
:1012D00061726C696E3D563736290A004545505299
:1012E0004F4D2076657273696F6E206D69736D6105
:1012F0007463682028454550524F4D3D006F70651E
:101300006E00545249474745524544007A5F6D6923
:101310006E00795F6D696E00785F6D696E00526571
:10132000706F7274696E6720656E6473746F70207D
:101330007374617475730A005761726E696E673AEF
:1013400020486F6D696E672042756D702044697624
:1013500069736F72203C20310A000202040000A071
:10136000400000A04000000040000000010000001C
:101370000100008000555555000000400033333314
:1013800000AAAA2A004992240000002000C7711C6C
:101390000099991900D1451700555515003BB11317
:1013A000002449120011111100000010000F0F0F4E
:1013B00000E3380E0043790D00CCCC0C00C3300C98
:1013C00000E8A20B0064210B00AAAA0A00703D0AE3
:1013D000009DD80900427B090092240900DCD30853
:1013E00000888808001042080000000800F0C107CB
:1013F000008787070075500700711C07003EEB0649
:1014000000A1BC06006990060066660600703E06F4
:10141000006118060017F4050074D105005BB005E3
:1014200000B2900500627205005555050078390537
:1014300000B81E0500050505004EEC040087D40425
:1014400000A1BD040090A7040049920400C17D04DE
:1014500000EE690400C7560400444404005C3204F2
:10146000000821040041100400000004003FF003C4
:1014700000F8E0030026D20300C3C30300CCB50389
:10148000003AA803000A9B0300388E0300C08103C2
:10149000009F750300D0690300505E03001D5303D5
:1014A0000034480300913D03003333030016290341
:1014B00000381F030097150300300C0300030303DB
:1014C000000BFA020049F10200BAE802005CE002F7
:1014D000002DD802002DD0020059C80200B0C00271
:1014E0000031B90200DAB10200AAAA0200A0A302E8
:1014F00000BC9C0200FA9502005C8F0200DF8802AB
:101500000082820200457C020027760200277002DA
:1015100000436A02007C640200D05E02003F590270
:1015200000C853020042696C696E656172204C65A7
:1015300076656C696E6720477269643A0A00535495
:101540004F505045442E20005072696E74657220D1
:1015500073746F707065642064756520746F2065A6
:1015600072726F72732E20466978207468652065E8
:1015700072726F7220616E6420757365204D393907
:101580003920746F20726573746172742E20285430
:10159000656D70657261747572652069732072651E
:1015A0007365742E205365742069742061667465B8
:1015B000722072657374617274696E67290A002102
:1015C000212053544F502063616C6C656420626528
:1015D0006361757365206F6620424C546F75636854
:1015E000206572726F72202D20726573746172743F
:1015F0002077697468204D3939390A004F46460A08
:10160000004661646520486569676874200042652A
:1016100064204C6576656C696E6720004661696C74
:10162000656420746F20656E61626C65204265643C
:10163000204C6576656C696E670A00496E76616C50
:101640006964206D6573682E0A002042403A0020CC
:10165000403A002020506C616E6E6572427566667D
:10166000657242797465733A200020467265652080
:101670004D656D6F72793A2000436F6D70696C65CE
:10168000643A204A756E20313720323032300A00F9
:10169000204C61737420557064617465643A203223
:1016A0003032302D30332D3331207C204175746839
:1016B0006F723A20285448694E4B33642C2053579C
:1016C0002D58312C20424C546F7563682041424C98
:1016D000290A00322E302E352E330A004D61726CED
:1016E000696E0020536F667477617265205265736E
:1016F00065740A00205761746368646F67205265DF
:101700007365740A002042726F776E206F757420C3
:1017100052657365740A002045787465726E616C59
:101720002052657365740A00506F77657255700AB0
:1017300000656E6473746F7073206869743A20007A
:1017400000002100240027002A002D003000330073
:1017500001010000040107010A0100002200250028
:1017600028002B002E00310034000201000005018A
:1017700008010B01000020002300260029002C0096
:101780002F003200000100000301060109010505D8
:101790000505070508080808020202020A0A0808E7
:1017A0000404040401010101010101010303030315
:1017B00003030303040707070C0C0C0C0C0C0C0CA4
:1017C0000202020206060606060606060B0B0B0BB5
:1017D0000B0B0B0B010210202008081020401020DA
:1017E00040800201020108040201010204081020E5
:1017F00040808040201008040201800402018040E3
:10180000201008040201080402010102040810204B
:101810004080010204081020408000000A0B0209E9
:101820000C0D0E080703040100000000000000007A
:1018300000000000000000000000000000000000A8
:101840000000000000001211100000000000000065
:101850000000000000000000000000000000000088
:1018600020746F6F206C6F6E67206578747275736B
:10187000696F6E2070726576656E7465640A00200B
:10188000636F6C6420657874727573696F6E207015
:10189000726576656E7465640A00526573656E6480
:1018A0003A200023646566696E65204445464155CB
:1018B0004C545F004B6420004B6920004B702000AB
:1018C000504944204175746F74756E652066696E69
:1018D0006973686564212050757420746865206C94
:1018E000617374204B702C204B6920616E64204B17
:1018F0006420636F6E7374616E74732066726F6DB3
:101900002062656C6F7720696E746F20436F6E661E
:10191000696775726174696F6E2E680A0050494478
:10192000204175746F74756E65206661696C6564BD
:10193000212074696D656F75740A000A20436C611B
:101940007373696320504944200A00204B643A2095
:1019500000204B693A2000204B703A20000A204EAC
:101960006F206F76657273686F6F740A002054750C
:101970003A2000204B753A2000206D61783A200013
:10198000206D696E3A200020643A2000206269616F
:10199000733A2000504944204175746F74756E6528
:1019A0002073746172740A00504944204175746F49
:1019B00074756E65206661696C6564212054656D7F
:1019C000706572617475726520746F6F20686967E5
:1019D000680A00504944204175746F74756E652023
:1019E0006661696C65642120426164206578747267
:1019F00075646572206E756D6265720A0000009BE9
:101A00004300009B430000C84350726F62696E67D9
:101A1000206D65736820706F696E74200020284403
:101A2000525952554E2900473239204175746F2062
:101A3000426564204C6576656C696E67003F2028BE
:101A40004C2C522C462C4229206F7574206F662036
:101A5000626F756E64732E0A003F285629657262A4
:101A60006F7365206C6576656C20696D706C61754F
:101A70007369626C652028302D34292E0A0042617A
:101A800064205A2076616C75650A004E6F20626989
:101A90006C696E65617220677269640A00204D3955
:101AA0003220580020496E76616C69642065787434
:101AB000727564657220004361703A0047322F47A7
:101AC000332062616420706172616D657465727348
:101AD0000A00FFFDFCFAF8F6F4F2F0EEECEAE9E7B2
:101AE000E5E3E1E0DEDCDAD9D7D5D4D2D0CFCDCB77
:101AF000CAC8C7C5C3C2C0BFBDBCBAB9B7B6B4B304
:101B0000B2B0AFADACAAA9A8A6A5A4A2A1A09E9D63
:101B10009C9A99989795949392908F8E8D8B8A89A1
:101B200088878684838281807F7E7D7B7A797877BF
:101B3000767574737271706F6E6D6C6B6A696867BD
:101B4000666564636261605F5E5D5C5B5A595858AC
:101B50005756555453525150504F4E4D4C4B4A4A84
:101B60004948474646454443424241403F3E3E3D48
:101B70003C3B3B3A393838373635353433323231FD
:101B800030302F2E2E2D2C2B2B2A292928272726A3
:101B9000252524232322212120201F1E1E1D1C1C3D
:101BA0001B1B1A19191818171616151514131312CA
:101BB000121111100F0F0E0E0D0D0C0C0B0A0A094D
:101BC00009080807070606050504040303020201C5
:101BD000000048617264636F6465642044656661F7
:101BE000756C742053657474696E6773204C6F61F3
:101BF0006465640A003B200020204D393030204BC2
:101C0000004C696E65617220416476616E63653A6D
:101C10000020204D3835312058005A2D50726F6207
:101C200065204F66667365740020204D3330342084
:101C3000500020204D333031205000504944207353
:101C4000657474696E67733A00204A002020473239
:101C500039205720490020204D3432302053004194
:101C600075746F20426564204C6576656C696E679B
:101C70003A0020204D323036205800486F6D6520E4
:101C80006F66667365743A0020204D32303520420D
:101C900000416476616E6365643A20423C6D696E12
:101CA0005F7365676D656E745F74696D655F75738D
:101CB0003E20533C6D696E5F666565647261746554
:101CC0003E20543C6D696E5F74726176656C5F6630
:101CD000656564726174653E20583C6D61785F781B
:101CE0005F6A65726B3E20593C6D61785F795F6A0F
:101CF00065726B3E205A3C6D61785F7A5F6A6572EF
:101D00006B3E20453C6D61785F655F6A65726B3E36
:101D10000020204D323034205000416363656C65F3
:101D2000726174696F6E2028756E6974732F7332D7
:101D3000293A20503C7072696E745F616363656C10
:101D40003E20523C726574726163745F61636365C7
:101D50006C3E20543C74726176656C5F61636365B0
:101D60006C3E0020204D3230312058004D617869A2
:101D70006D756D20416363656C65726174696F6E2A
:101D80002028756E6974732F7332293A002045003C
:101D900020204D3230332058004D6178696D756DCB
:101DA000206665656472617465732028756E697458
:101DB000732F73293A005374657073207065722015
:101DC000756E69743A0020204D3230302044300A5C
:101DD0000020204D3230302044002044697361627D
:101DE0006C65640A0046696C616D656E742073658C
:101DF0007474696E67733A0020286D6D2900202085
:101E0000473231202020203B20556E6974732069B1
:101E10006E206D6D00486F6D696E67204661696C5C
:101E20006564000000484300004843000020410072
:101E300000A042F43DA042F43DA04296E3C7439A7D
:101E4000D9E343DC050000DC050000DC050000B838
:101E50000B0000486F6D65202573257325732046A0
:101E60006972737400220A00556E6B6E6F776E2074
:101E7000636F6D6D616E643A20220020453A002048
:101E80005A3A0020593A00205A3A200020593A2064
:101E90000042656420583A200050726F62696E6794
:101EA000204661696C65640A00007FA111241FBE91
:101EB000CFEFD1E2DEBFCDBF00E00CBF13E0A0E06A
:101EC000B2E0E4EFFBE501E00BBF02C007900D922A
:101ED000AA31B107D9F72FE0AAE1B3E001C01D9202
:101EE000A038B207E1F71FE0C6E5DFE000E006C07A
:101EF00021970109802FFE010E94A9AAC535D107AB
:101F000080E00807A9F70E94D69D0C94F8AD0C94C8
:101F100000002F923F924F925F926F927F928F922A
:101F20009F92AF92BF92CF92DF92EF92FF920F9368
:101F30001F93CF93DF93CDB7DEB7E3970FB6F89437
:101F4000DEBF0FBECDBF2091010428AB11E010937E
:101F50000104809100048D3409F431C3843511F4F7
:101F60000C94E01E873411F00C94FB1E2091FE03AC
:101F70003091FF032C31310509F48AC094F42430E8
:101F8000310534F422303105B4F537FF28C013C3CE
:101F900024303105F1F12531310511F40C94FD1E89
:101FA0000AC32A32310509F4DFC14CF42D31310561
:101FB00009F47EC02E31310509F48EC0FCC22B35E8
:101FC000310509F44EC12C35310509F44FC12A35CC
:101FD000310509F0F0C21092FD030C94FD1E8091B2
:101FE000FC03813011F00C94FD1E0E9405840E94B8
:101FF00068540C94FD1E8091FC03813011F00C9408
:10200000FD1E2230310509F080E00E94B6840C9458
:10201000FD1E80E50E94845D882379F08091FA039B
:102020009091FB03009749F04AE050E060E070E0D7
:102030000E94A7A46B017C0103C0C12CD12C7601A6
:1020400083E50E94845D882361F00E94045D20E0A6
:1020500030E04AE754E40E948DA60E9425AC6B0153
:102060007C010E94B8920E94B867C60ED71EE81E77
:10207000F91E0E94B867DC01CB018C199D09AE09DD
:10208000BF09B7FD02C00C94FD1E0E94FA2BF1CFD0
:1020900080919E0E8770873011F00C94101F60E0C5
:1020A0008FE40E94AC5D81110C94FD1E0C94101FF6
:1020B0000E941F9B81110C94FD1E8091AA0E882303
:1020C00011F40C94222160E08FE40E94AC5D811138
:1020D0000C94FD1E0C94222120916E0F30916F0FF5
:1020E0004091700F5091710F60915D0270915E028E
:1020F00080915F02909160020E94B2AAAB01BC0184
:1021000088E50E943B7A69837A838B839C83209144
:10211000720F3091730F4091740F5091750F609151
:1021200061027091620280916302909164020E9448
:10213000B2AAAB01BC0189E50E943B7A6D837E8324
:102140008F839887BE016B5F7F4FCE0101960E94FF
:102150001B5B882311F40C94FD1E80E00E946C62CE
:102160000E94425761E085E40E94AC5D182F21E097
:10217000482FBE016B5F7F4FCE0101960E94779B77
:102180006B017C019B01AC010E94A4AD81115FC079
:1021900089809A80AB80BC8020E030E0A901C50135
:1021A000B4010E9427A687FF05C027E137EB41E570
:1021B00058EB04C027E137EB41E558E3C501B40112
:1021C0000E94B2AAAB01BC0181E99EE10E94C22B30
:1021D0008D809E80AF80B88420E030E0A901C501E9
:1021E000B4010E9427A687FF05C027E137EB41E530
:1021F00058EB04C027E137EB41E558E3C501B401D2
:102200000E94B2AAAB01BC018CE89EE10E94C22BE5
:1022100020E030E0A901C701B6010E9427A687FF90
:1022200005C067E177EB81E598EB04C067E177EBE8
:1022300081E598E3A70196010E94B2AAAB01BC0117
:1022400087E89EE10E94C22B8AE00E94FC290E943E
:102250002957113011F40E949F900E94045A0C9447
:10226000FD1E8FE08093FD030C94FD1E95E7292E43
:1022700092E0392E2CEDE22E23E0F22E4DE552E0D5
:102280005F8F4E8F3FEAC32E3EE0D32E00E010E07A
:10229000D1018D911D010E94845D882309F44BC0FA
:1022A0000E94045D2B013C01133049F0F6012081AE
:1022B0003181428153810E94B1AA2B013C01AE8D34
:1022C000BF8D2D913D914D915C91C301B2010E9452
:1022D000B1AA4B015C012DEB37E346E855EB0E94B8
:1022E00012AD87FD0AC02DEB37E346E855E3C50183
:1022F000B4010E9427A61816F4F4133051F440924A
:10230000690250926A0260926B0270926C0201E064
:1023100012C0A5019401F7016081718182819381CE
:102320000E94B2AAD7016D937D938D939C931397CE
:10233000812F0E94A7531F5FB4E0EB0EF11CEE8DBE
:10234000FF8D3496FF8FEE8FF4E0CF0ED11C14304A
:1023500009F09ECF002321F089E692E00E94C89206
:102360000E94045A0C94FD1E8091FC03813011F0F0
:102370000C94FD1E89E40E94845DE82E882321F0E0
:102380000E94005D082F01C000E08AE40E94845D85
:10239000F82E882321F00E94005D182F01C010E064
:1023A000EE2011F0053020F4FF2041F0153030F020
:1023B00081E796E00E94032A0C94FD1E80E1EDE582
:1023C000F2E0AAEEB3E001900D928A95E1F7EE20DB
:1023D00019F1602F000F770B880B990B0E942EA626
:1023E0002091CC033091CD034091CE035091CF0387
:1023F0000E948DA62091D4033091D5034091D6033D
:102400005091D7030E94B2AA6093EA037093EB0342
:102410008093EC039093ED03FF2019F1612F110FCE
:10242000770B880B990B0E942EA62091D003309138
:10243000D1034091D2035091D3030E948DA62091E5
:10244000D8033091D9034091DA035091DB030E9405
:10245000B2AA6093EE037093EF038093F00390931E
:10246000F10360E080E50E94AC5D8823C1F1EE20BD
:10247000D1F020916E0F30916F0F4091700F5091FD
:10248000710F6091EA037091EB038091EC039091DE
:10249000ED030E94B1AA6093EA037093EB0380936B
:1024A000EC039093ED03FF20D1F02091720F309157
:1024B000730F4091740F5091750F6091EE037091FE
:1024C000EF038091F0039091F1030E94B1AA609311
:1024D000EE037093EF038093F0039093F10340E0D9
:1024E00050E0BA0186E40E943B7A6B017C0120E057
:1024F00030E0A9010E9412AD18165CF420E030E033
:1025000040E752E4C701B6010E94ACAB6B017C010D
:1025100003C0C12CD12C7601809071029090720280
:10252000A0907302B090740220E030E0A901C701CE
:10253000B6010E9427A6882341F0C0927102D09272
:102540007202E0927302F0927402009121021091E3
:10255000220284E690E09093220280932102C090B0
:102560004B02D0904C02E0904D02F0904E0280E081
:1025700090E0A0E8BFE380934B0290934C02A093BD
:102580004D02B0934E020E94685480927102909264
:102590007202A0927302B09274021093220200930E
:1025A0002102C0924B02D0924C02E0924D02F09276
:1025B0004E020C94FD1E0E94119B0C94FD1E8091F6
:1025C000FE039091FF038B39910509F4CDC30CF004
:1025D000F4C08A36910509F4CDC20CF047C08135AC
:1025E000910509F4E9C31CF58A32910509F45AC230
:1025F0006CF48231910509F4F7C38F31910509F428
:10260000AAC1419711F00C94DD1E91C18C34910543
:1026100009F461C28D34910509F472C28B349105BD
:1026200011F00C94DD1E0E94027A0C94FD1E85357B
:10263000910509F406C474F48335910509F4CCC3FB
:102640000CF0D2C38091FD038F7D80618093FD03E8
:102650000C94FD1E8836910509F456C20CF076C222
:102660008C35910509F410C40C94DD1E8237910558
:1026700009F4AAC4B4F48E36910509F4AAC254F43C
:102680008C36910509F403C30CF498C20E943B8078
:102690000C94FD1E8037910509F4FDC20CF4ACC208
:1026A00001C38737910509F4D0C40CF076C0853793
:1026B000910511F40C94FD1E0CF08DC48337910527
:1026C00011F00C94DD1E87E495E00E94032A60E07F
:1026D00087E395E00E94EB8360E082E295E00E9450
:1026E000EB8361E08BE195E00E94EB8361E080E1A8
:1026F00095E00E94EB8361E080E095E00E94EB832F
:1027000060E087EF94E00E94EB8361E08DEE94E05F
:102710000E94EB8361E083EE94E00E94EB8361E032
:102720008BED94E00E94EB8361E08DEC94E00E94DD
:10273000EB8360E08FEB94E00E94EB8360E080EB42
:1027400094E00E94EB8360E082EA94E00E94EB83D5
:1027500060E08CE894E00E94EB8360E08BE794E01B
:102760000E94EB8360E08CE694E00E94EB8360E0E3
:1027700087E594E00E94EB8361E084E494E00E94AA
:10278000EB8360E087E394E00E94EB8360E083E208
:1027900094E00E94EB830C94FD1E8937910509F4A7
:1027A0005FC40CF455C48C38910509F4A5C2863970
:1027B000910509F45CC40C94DD1E8F3221E0920770
:1027C00011F40C94381D0CF04BC0833D910509F4B5
:1027D0007AC524F58B3C910509F4F6C474F4883C61
:1027E000910509F481C4893C910509F4C7C48E3B65
:1027F000910511F00C94DD1EA2C28D3C910509F4E7
:1028000036C50CF400C58E3C910511F00C94DD1E0C
:1028100077E8E72E73E0F72E10E043C5883141E0FA
:10282000940709F4DEC674F48D3D910509F438C6A9
:10283000823E910509F48AC68C3D910511F00C94F5
:10284000DD1E07C68D32A1E09A0709F4DAC714F03D
:102850000C94F41C8232914009F45AC70C94DD1E8A
:102860008C3AF1E09F0711F40C94BB1D64F582399A
:1028700031E0930711F40C94481D84F4803951E041
:10288000950711F40C943B1D14F00C943E1D8033FD
:10289000914011F40C94811C0C94DD1E843AE1E00B
:1028A0009E0711F40C944F1D853AF1E09F0711F437
:1028B0000C94521D8A39914011F00C94DD1E0E9437
:1028C000E8270C94FD1E873F31E0930711F40C9428
:1028D0001F1E94F4853F51E0950711F40C94191EC6
:1028E00014F00C941C1E843F914011F00C94DD1EDA
:1028F0000E94984B0C94FD1E8335E3E09E0711F473
:102900000C94381E3CF4883F914011F40C94271E1F
:102910000C94DD1E843833E0930711F40C94691E87
:10292000873E934011F40C94D11E0C94DD1E8091CF
:10293000C80384FF02C00C9425218091CA0387FF3D
:1029400002C00C9425218091CB03837011F00C946C
:1029500025210C9442210E94B3797B018C0120E84F
:1029600031E541E050E00E942EAAC9016DE671E018
:102970000E9495AA4B015C01C801B70120E13EE02D
:1029800040E050E00E942EAACA01B90128E130E0DF
:1029900040E050E00E942EAA762E672EC62ED72E3B
:1029A0008CE3282E312C412C512CC801B701A201F7
:1029B00091010E942EAAF62EE72ECA01B901A201AA
:1029C00091010E942EAACB018E010F5F1F4F81142F
:1029D000910499F0EF92FF927F936F936F927F92A1
:1029E000BF92AF929F928F9280E596E09F938F93D4
:1029F0001F930F930E94F8A513C0A114B104B1F066
:102A0000EF92FF927F936F936F927F92BF92AF92FC
:102A100084E596E09F938F931F930F930E94F8A5F0
:102A20000FB6F894DEBF0FBECDBF30C0CD2879F011
:102A3000EF92FF927F936F936F927F9288E596E07B
:102A40009F938F931F930F930E94F8A5E9CF892B33
:102A500069F0EF92FF927F936F938CE596E09F93DE
:102A60008F931F930F930E94F8A5DACFEF92FF92F6
:102A700080E696E09F938F931F930F930E94F8A593
:102A80000F900F900F900F900F900F900E94292A97
:102A9000B80184E696E00E94122A8AE00E94FC298E
:102AA0000C94FD1E6DE070E080E50E94915D8C014C
:102AB00097FF02C00C94FD1EE82E60E089E40E949E
:102AC000AC5D81110C944C21802F0E94B19D81112D
:102AD0005AC50C944C218091C703813011F00C949D
:102AE000FD1E82E08093C7030E94B8676093C30312
:102AF0007093C4038093C5039093C6030C94FD1E8A
:102B00000E94267A0C94FD1E8091A20D83FF02C0C4
:102B10000C94FD1E0E94BA8987FF02C00C94FD1E12
:102B200083E50E94845D882369F00E94045D0E9411
:102B30001EACCB010E940E680E94FA3B811102C0BC
:102B40000E94267A0E941D920C94FD1E0E94BA8952
:102B5000182F87FD0AC089E692E00E94032A812F80
:102B60000E9454688AE00E94FC2948A9409301040D
:102B70000C94372560E080E50E94A05D81110C94E3
:102B8000FD1E81E40E943B5D882321F06091530784
:102B9000062F02C00FEF10E083E50E94845D8823BA
:102BA00049F00E94CC5C8B016F3F710519F010F069
:102BB0000FEF10E0009353070C94FD1E60E080E5DA
:102BC0000E94A05D81110C94FD1E109253070C947D
:102BD000FD1E8EE40E94845D882311F40C94FD1E7A
:102BE0000E94CC5C6093BF037093C0038093C103C9
:102BF0009093C2030C94FD1E83E50E943B5D8823E5
:102C000031F060E083E50E94A05D8093A20D0E94F8
:102C1000292A88E296E00E94032A8091A20D882347
:102C200069F10DEBE02E06E0F02E00E010E020E070
:102C30008091A20D90E0A0E0B0E0002E04C0B69517
:102C4000A795979587950A94D2F780FF0EC0DD244B
:102C5000D394D20E222319F08CE20E94FC29F701B2
:102C6000859194910E94032A2D2D0F5F1F4F52E0F2
:102C7000E50EF11C05301105D9F604C084E296E09A
:102C80000E94032A8AE00E94FC290C94FD1E1092E7
:102C900020020C94FD1E41E060E070E086E196E0C9
:102CA0000E942D2A83E50E94845D882381F00E9482
:102CB000DC5C282F30E02D33310524F480931F0293
:102CC0000C94FD1E8CE380931F020C94FD1E0E9449
:102CD000292AC0901F02D12CE12CF12C8FE096E024
:102CE0000E94032A4AE0C701B6010E94AA2A8AE08C
:102CF0000E94FC290C94FD1E8091A20D83FF02C04E
:102D00000C94FD1E83E50E94845D882379F00E9467
:102D1000045D0E941EAC6E36710514F06EE670E024
:102D20007093B1036093B0030E940D3C0E94FA3B84
:102D300081110C94FD1E0E94267A0C94FD1E809138
:102D4000A20D83FF02C00C94FD1E83E50E94845DEA
:102D50008EA381110C94892182E50E94845D8111EA
:102D60000C9489210C94FD1E83E50E94845D8823C8
:102D700011F40C94FD1E0E94DC5C182F90E0CD979E
:102D80000CF01CE31093A2030E94B8676B017C0156
:102D9000212F30E0A8EEB3E00E947AAAC60ED71E1B
:102DA000E81EF91EC0929E03D0929F03E092A003FA
:102DB000F092A1030C94FD1E0E94453C0E94267ACD
:102DC0000E9477941092530768EE73E080E090E0E1
:102DD0000E94A8270C94FD1E8091FD038F7E8062C7
:102DE0008093FD030C94FD1E83E50E94845D88237F
:102DF000A1F00E94045D20E030E04AE754E40E9424
:102E00008DA60E9425AC60931B0270931C028093D8
:102E10001D0290931E020C94FD1E8091C80384FF36
:102E200002C00C94F4228091CA0387FF02C00C9464
:102E3000F4228091CB03837011F00C94F4220C9453
:102E4000262383E50E943B5D882309F4D6C70E94B0
:102E5000B8676093A4037093A5038093A60390932F
:102E6000A7030E94045D20E030E04AE754E40E949A
:102E70008DA60E9425AC60939A0370939B03809368
:102E80009C0390939D03B9C70E94BA8987FDB5C77B
:102E90009091C80394FD04C09091CA0397FF0AC0A3
:102EA000B5E7CB2EB2E0DB2E13EAE12E1DE0F12ECA
:102EB00010E009C09091CB03937091F7682F81E0E7
:102EC0000E94E3899AC7F60181916F010E94845D97
:102ED000882309F46FC0133009F063C00E94045DB9
:102EE0004B015C0120E030E040EA51E40E9427A65B
:102EF00087FF4EC0A50194016091C30D7091C40D70
:102F00008091C50D9091C60D0E94ACAB2B013C0188
:102F10009B01AC0160914F07709150078091510760
:102F2000909152070E948DA660934F0770935007AF
:102F30008093510790935207A30192016091D30DA2
:102F40007091D40D8091D50D9091D60D0E948DA6D3
:102F50006093D30D7093D40D8093D50D9093D60DBF
:102F600060913B0770913C0780913D0790913E072F
:102F70000E942CA6A30192010E948DA60E9425AC5E
:102F800060933B0770933C0780933D0790933E0707
:102F90008092C30D9092C40DA092C50DB092C60D43
:102FA00009C00E94045DD70154966D937D938D9363
:102FB0009C9357971F5FB4E0EB0EF11C143009F09F
:102FC00082CF0E94949219C70E94E99984E59FE0FC
:102FD0000E94FA4412C7009198031091990394E05B
:102FE000F12C40E0915021F1F8018081282F2B7FB6
:102FF000213421F421812133D9F407C08035C1F473
:10300000818180538A3048F013C0813421F08534A7
:1030100021F441E002C0FF24F39498012E5F3F4F5A
:1030200089012F5F3F4FF80180818032C9F3DACFE9
:1030300041110E94292AFF2021F08FE194E00E9493
:10304000032AC8010E94D92BD8C60E94985AD5C617
:1030500081E08093E9038093E8030E94ED5ACDC696
:103060001092E9031092E8030E94ED5AC6C682E46A
:103070000E943B5D882351F08091FA039091FB03FD
:10308000892B31F00E94DC5C182F03C010E001C0D6
:103090001FEF85E50E943B5D882351F08091FA0384
:1030A0009091FB03892B31F00E94DC5C082F03C058
:1030B00000E001C00FEF82E50E943B5D882349F0EC
:1030C0008091FA039091FB03892B29F00E94DC5C2C
:1030D00003C080E001C08FEF89830A831B83CE0188
:1030E00001960E94C15D89C60E94BA89182F87FD8A
:1030F00084C684E40E943B5D8823E9F10E94045D5C
:103100006B017C0101E020E030E0A9010E9427A6CC
:10311000811101C000E00093970320E030E0A90195
:10312000C701B6010E9427A6882329F124E01202D4
:10313000F0011124ED56FC4FC082D182E282F3826D
:1031400020E030E0A9016091930370919403809195
:103150009503909196030E9427A681110CC080E0F0
:1031600090E0A0EEBFE38093930390939403A09329
:103170009503B09396030E94E9943FC60E94BA89D2
:1031800087FD3BC6F5E7EF2EF2E0FF2E03EA1DE0D8
:10319000A3EBCA2EADE0DA2ED7018D917D010E94FE
:1031A0003B5D882359F00E94045D0E9425ACF80124
:1031B00060837183828393830E944D920C5F1F4FC3
:1031C000C016D10649F719C60E94BA8987FD15C6EF
:1031D000E5E7EE2EE2E0FE2E03EA1DE0D7018D9139
:1031E0007D010E943B5D882339F00E94045DF80157
:1031F00064A375A386A397A30C5F1F4FFDE0033B59
:103200001F0761F7FAC58091C90387FF02C00C94BC
:1032100029238091CA038E7011F00C9429234091C8
:10322000D70D5091D80D6091D90D7091DA0D8FE0C6
:1032300094E00E94C22B4091DB0D5091DC0D609117
:10324000DD0D7091DE0D8CE094E00E94C22B409168
:10325000DF0D5091E00D6091E10D7091E20D89E07C
:1032600094E00E94C22B8AE00E94FC29C6C580918E
:10327000C803827111F00C946F238091CA038C787B
:1032800011F00C946F238091CB03837011F00C9498
:103290006F23B3C51F5FB4E0EB0EF11C133009F4CC
:1032A0005FC888E5810F0E943B5D882399F30E94E7
:1032B000045DD7016D937D938D939C931397812F1C
:1032C0000E94A753E7CF4090AF0E5090B00E609091
:1032D000B10E7090B20E2091030230910402409121
:1032E000050250910602C301B2010E94B2AA6E8F7C
:1032F0007F8F88A399A38090B30E9090B40EA09076
:10330000B50EB090B60E20910702309108024091A0
:10331000090250910A02C501B4010E94B2AA6AA32F
:103320007BA38CA39DA3C090B70ED090B80EE09065
:10333000B90EF090BA0E20910B0230910C02409120
:103340000D0250910E02C701B6010E94B2AA6EA3EF
:103350007FA388A799A720910F0230911002409176
:10336000110250911202C301B2010E94B2AA2B01B4
:103370003C012091130230911402409115025091AA
:103380001602C501B4010E94B2AA4B015C01209152
:103390001702309118024091190250911A02C70188
:1033A000B6010E94B2AA6B017C010E94292A87EC17
:1033B00093E00E94032A83E50E943B5D882321F06D
:1033C0000E94F05C8093020280910202882319F02F
:1033D0008EE492E002C083E495E00E94032A8FEB22
:1033E00093E00E94032A4E8D5F8D68A179A189E642
:1033F0009DE10E94C22B4AA15BA16CA17DA184EB3F
:1034000093E00E94C22B4EA15FA168A579A58EE72B
:1034100093E00E94C22B8CEB92E10E94032A87EB7F
:1034200093E00E94032AB301A20189E69DE10E9474
:10343000C22BB501A40184EB93E00E94C22BB7011B
:10344000A6018EE793E00E94C22B8AE00E94FC292D
:10345000D4C483E50E94845D882331F00E94005D1E
:1034600090932202809321028091C8039091C90316
:10347000A091CA03B091CB03892B8A2B8B2B09F027
:10348000BCC4609121027091220280EB93E00E9403
:10349000402B85E20E94FC298AE00E94FC29ADC4F1
:1034A0000E94BA89F82E87FDA8C483E50E94845D36
:1034B0000F2D0F2C000C110B882369F10E94005D69
:1034C000F801EE0FFF1FE050FE4F91838083000F45
:1034D000111F000F111FF801E55BFD4F7F01BC01BB
:1034E000990F880B990B0E942EA62AE037ED43E234
:1034F0005CE30E948DA6F801ED57FC4F20813181DD
:10350000428153810E948DA6D7016D937D938D9347
:103510009C93139772C40E94292A85E40E94FC2977
:1035200080E38F0D0E94FC29000F111FF801E0506D
:10353000FE4F6081718188EA93E00E94402B85E212
:103540000E94FC298AE00E94FC2957C480E50E9461
:103550003B5D882309F451C460E070E080E50E947F
:10356000915DF82E6FEF7FEF83E50E94915D8C01F6
:103570000196039708F041C4F7FC3FC48F2D0E94C9
:10358000B19D882339F00E94252A8FE296E00E949F
:10359000032A33C40E94B89260E08F2D0E9479669E
:1035A0000F3FBFEF1B0731F00130110571F000E054
:1035B00010E00DC08F2D0E94216631E020E0892BA4
:1035C00009F030E0032F122F02C001E010E08F2D30
:1035D0000E9421668017910709F40FC40E94FA2BFC
:1035E000F6CF80E50E943B5D882309F406C40E9463
:1035F000005D8C01892B09F07FC083E50E943B5D53
:10360000882389F00E94005D8F3FEFEF9E0729F429
:1036100088E29FE00E940828F0C3BC0188E29FE096
:103620000E948428EAC30E94292A60E070E080EAB0
:1036300093E00E94402B80912A0F28E532E0690137
:10364000C81AD10887FDD394CC0CDD1CCC0CDD1C32
:103650000D2C000CEE08FF088091290F28E830E0BF
:103660004901881A910887FD9394880C991C880C4D
:10367000991C092C000CAA08BB088091280F8F3FC9
:10368000C1F090E0FC01EE0FFF1F8E0F9F1FFC01A9
:10369000E554F14F2181328183E0220F331F8A9557
:1036A000E1F794E0369527959A95E1F72E5F3F4F25
:1036B00002C020E030E02F5F3F4FC901330FAA0B5B
:1036C000BB0B9C01AD01281939094A095B09A4EB20
:1036D000B0E00E946FAAA7019601281939094A098A
:1036E0005B090E9450AAB90184E990E10E94402B35
:1036F0008AE00E94FC2981C30E94252AB80181EA40
:1037000093E00E94402B81E993E00E94032A75C355
:103710008AE50E94845D811106C083E50E94845D74
:10372000882309F450C00E94045D20E030E040E0AE
:1037300050EC0E9427A687FF02C00C94FB230E9436
:10374000045D20E030E040E050E40E9412AD181625
:1037500014F40C94F4230E94045D6B017C018091AD
:103760006C0F8695869580FF22C02091BF0D309109
:10377000C00D4091C10D5091C20DC701B6010E940C
:103780008DA60E941EAC2091020430910304260FE6
:10379000371F30930304209302042091810330915A
:1037A0008203620F731F709382036093810380E52D
:1037B0000E943B5D882311F40C9402240E94F05C6B
:1037C00081110C9402248091CA0387FF02C00C94DB
:1037D00029248091CB03837011F00C9429240E943A
:1037E000292A4091760F5091770F6091780F709150
:1037F000790F82E793E00E94C22B8AE00E94FC29A5
:10380000FCC260E085E40E94A05D811173C080E588
:103810000E943B5D882351F00E94045D6093700715
:1038200070937107809372079093730789E40E94E5
:103830003B5D882381F00E94045D2CEA35EC47E271
:103840005EE30E948DA66093740770937507809362
:1038500076079093770784E40E943B5D882381F08C
:103860000E94045D2CEA35EC47E25EE30E94ACABBB
:10387000609378077093790780937A0790937B071A
:103880000E94292A40917007509171076091720738
:10389000709173078EE693E00E94C22B2CEA35EC00
:1038A00047E25EE360917407709175078091760737
:1038B000909177070E94ACABAB01BC018AE693E024
:1038C0000E94C22B2CEA35EC47E25EE36091780758
:1038D0007091790780917A0790917B070E948DA65D
:1038E000AB01BC0186E693E00E94C22B8AE00E94F5
:1038F000FC2983C20E94252A84E593E00E94032AC2
:103900007CC280E50E943B5D882351F00E94045DEB
:103910006093B3037093B4038093B5039093B6039D
:1039200089E40E943B5D882381F00E94045D2CEABB
:1039300035EC47E25EE30E948DA66093B703709377
:10394000B8038093B9039093BA0384E40E943B5D6B
:10395000882381F00E94045D2CEA35EC47E25EE3A7
:103960000E94ACAB6093BB037093BC038093BD0318
:103970009093BE030E94292A4091B3035091B4034F
:103980006091B5037091B6038EE693E00E94C22B5E
:103990002CEA35EC47E25EE36091B7037091B8031F
:1039A0008091B9039091BA030E94ACABAB01BC010A
:1039B0008AE693E00E94C22B2CEA35EC47E25EE3F4
:1039C0006091BB037091BC038091BD039091BE03D5
:1039D0000E948DA6AB01BC0186E693E00E94C22B3B
:1039E0008AE00E94FC2909C283E50E943B5D182FF2
:1039F000882371F00E94045D0E941EAC70935002F7
:103A000060934F0221E0672B09F020E020936407C8
:103A100080E50E943B5D882359F020914F02309150
:103A20005002232B11F00E94F05C80936407E5C1E3
:103A30001111E3C10E94292A81E493E00E94032A24
:103A400080916407882319F08FEF92E102C088E229
:103A500093E00E94032A60914F027091500280E32C
:103A600093E00E94402B8CE293E00E94032AC5C1A0
:103A70000E94527AC2C10E94B892BFC18091800355
:103A800081110C94B01181E00E94E98F0C94B01167
:103A90000E941E8A0E949F900E94045AAEC10E94FA
:103AA000CF63ABC16FEF7FEF89E40E94915D182F68
:103AB0006FEF7FEF8AE40E94915D082F8AE50E94F4
:103AC0003B5DF82E811105C081E50E943B5DD82E3B
:103AD00001C0D12C17FD06C007FD04C0F11009C0BC
:103AE000D11007C00E94252A88E093E00E94032A93
:103AF00084C1153010F4053038F00E94252A81E782
:103B000096E00E94032A79C1E12E110FFF08002ED2
:103B1000000C110B0E94045DDD2099F025E02E9D24
:103B2000F0012F9DF00D1124E00FF11FEE0FFF1F8C
:103B3000EE0FFF1FE45EFC4F2081318142815381F3
:103B400003C020E030E0A901A5E0AE9DF001AF9DEB
:103B5000F00D11240E0F1F1F000F111F000F111F5A
:103B6000045E1C4F0E94B2AAD8016D937D938D9381
:103B70009C93139742C10E941F9B81113EC101EB90
:103B800016E0EDE5F2E0FF8FEE8F9E012F5F3F4FD5
:103B900019019FEDC92E96E0D92E7901F8016591A2
:103BA000759185919491AE8DBF8D8D909D90AD90C6
:103BB000BD90BF8FAE8FA50194010E94B1AA2B01C9
:103BC0003C01F701608371838283938320E030E0BE
:103BD00040EA51EC0E9412AD87FD0AC020E030E0BF
:103BE00040EA51E4C301B2010E9427A618162CF442
:103BF000F601849118160CF433C6D7018D909D9070
:103C0000AD90BD907D0120E030E040EA51ECC5016F
:103C1000B4010E9412AD87FD53C620E030E040EAB7
:103C200051E4C501B4010E9427A618160CF023C662
:103C300047C60E94D796E1C00E947895DEC061E039
:103C400083E50E94AC5D81270E94E596D6C081E0A5
:103C500080931B030E94624510921B03882309F482
:103C6000CCC00E94292A8FED92E00E94032AC5C091
:103C70008091CA0387FD2BC68091CB03837009F026
:103C800026C640916E0F50916F0F6091700F70912A
:103C9000710F80ED92E00E94C22B4091720F509103
:103CA000730F6091740F7091750F84EB93E00E9415
:103CB000C22B4091760F5091770F6091780F7091E1
:103CC000790F8EE793E00E94C22B8AE00E94FC29C4
:103CD00094C0A0907C07B0907D07C0907E07D090E4
:103CE0007F078BE40E94845D882339F10E94045D84
:103CF0007B018C0120E030E0A9010E9412AD87FD1C
:103D00000AC020E030E040E251E4B701C8010E945F
:103D100027A61816A4F48FE30E94FC298BE40E94C6
:103D2000FC2984E792E00E94032A8CE692E00E943C
:103D3000032A8BE79AE10E94032A75018601970105
:103D4000A801B501C6010E9427A6882361F00E9440
:103D5000B892C701D80180937C0790937D07A09308
:103D60007E07B0937F078091C8039091C903A0910B
:103D7000CA03B091CB03892B8A2B8B2BF1F50E94C0
:103D8000292A40917C0750917D0760917E077091B0
:103D90007F0788E892E00E94C22B8AE00E94FC29FB
:103DA0002CC081E08093FC0360E083E50E94AC5D61
:103DB000811123C00E94088220C00E94119B1DC057
:103DC0000091FE031091FF030023B9F00E94292AFD
:103DD00084E50E94FC29B8017727072E000C880B88
:103DE000990B0E94242B80E20E94FC2984E593E039
:103DF0000E94032A02C00E94119BE0911A03F0E086
:103E0000EC59F04F8081882339F089E692E00E94D6
:103E1000032A8AE00E94FC29F8A9F093010427C62E
:103E20000E94B8922091AA0E2EA780E00E946C6298
:103E30000E94425781E08093E9030E94ED5A88E591
:103E40000E943B5D182F89E50E943B5D082F8AE5A3
:103E50000E943B5D1013ECC1181711F0312EE9C11F
:103E60003324339411E031E03EA380E1EDE5F2E04C
:103E7000AAEEB3E001900D928A95E1F782E50E94E7
:103E8000845D882369F00E94045D6B017C0120E061
:103E900030E0A9010E9427A6882309F43FC006C08C
:103EA000C12CD12C40EAE42E40E4F42E111103C0C1
:103EB000332009F40BC180916C0F82FD09C0609121
:103EC000650270916602809167029091680203C05A
:103ED00060E070E0CB01A70196010E94B2AA609356
:103EE000F2037093F3038093F4039093F50320910E
:103EF00065023091660240916702509168020E940B
:103F000012AD18165CF419821A821B821C82BE0143
:103F10006F5F7F4F82EF93E00E942258112309F4D4
:103F2000D0C0332009F4CAC010925D0210925E0224
:103F300010925F021092600210926102109262026F
:103F400010926302109264020E94D158EFEDF6E0E5
:103F500044914FA7E3EDF6E0C590D590E590F4903D
:103F6000E7EDF6E085909590A590B490A5019401B9
:103F7000C701B6010E9412AD18162CF4A7019601D4
:103F8000C501B40104C0A5019401C701B6010E9496
:103F9000ACAB2B013C01EBECF6E085919591A59142
:103FA000B4918E8F9F8FA8A3B9A3E7ECF6E025917B
:103FB0003591459154912AA33BA34CA35DA3BC0129
:103FC000CD010E9412AD181634F42AA03BA13AA7E5
:103FD0000CA11DA105C02E8C4F8D4AA708A119A1C7
:103FE000A3019201C301B2010E948DA620E030E03E
:103FF00040E85FE30E94B2AA0E9460AD222D3AA57C
:10400000A8010E948DA669837A838B839C83E0EE4E
:10401000F6E014914090650250906602609067024D
:104020007090680220E030E040EC5FE3C501B4012D
:104030000E948DA64B015C01612F110F770B880B3D
:10404000990B0E942EA69B01AC01C501B4010E94F0
:104050008DA64B015C0120E030E040EC5FE3C7013E
:10406000B6010E948DA66B017C015FA5652F550FDF
:10407000770B880B990B0E942EA69B01AC01C70100
:10408000B6010E948DA6DE0111966D0183017201B9
:10409000A50194010E9461570E946A9510925D02E9
:1040A00010925E0210925F02109260021092610202
:1040B00010926202109263021092640280E00E94E9
:1040C000D358332019F081E00E94D358BEA1BB23FE
:1040D00009F4A0C080E00E94DB5F80916C0F8370C8
:1040E000833029F00E94292A82EA96E0A8C00E9423
:1040F000D15820916502309166024091670250913B
:1041000068022E8F3F8F48A359A320916E0F3091E4
:104110006F0F4091700F5091710F60E070E08BE174
:1041200093E40E94B1AA4B015C016093EA0370938F
:10413000EB038093EC039093ED032091720F309189
:10414000730F4091740F5091750F60E070E08BE138
:1041500093E40E94B1AA2B013C016093EE0370939B
:10416000EF038093F0039093F1032091760F309149
:10417000770F4091780F5091790F6E8D7F8D88A1C8
:1041800099A10E94B1AA6093F2037093F303809304
:10419000F4039093F50322ED30E040EA50ECC301C4
:1041A000B2010E9412AD87FD46C023E030E04BE92A
:1041B00053E4C301B2010E9427A61816E4F123EAD2
:1041C00031E040E050ECC501B4010E9412AD87FD22
:1041D00032C023E030E04BE953E4C501B4010E9452
:1041E00027A6181644F119821A821B821C82AE017E
:1041F0004F5F5F4F6A01EE8CFF8C08A119A1A301EC
:104200009201C501B4010E94615782E00E94D35817
:104210000E949F900E94D1588091E8038093E90307
:104220008EA50E946C620E9429570E94045AE5CD17
:10423000302E8EA31ACE0E94292A80E996E00E9491
:10424000032AE6CF0E94308AD8CD88E50E943B5DE4
:1042500081115F9889E50E943B5D81118A988AE50A
:104260000E943B5D882331F080910801817080932A
:104270000601479885E40E943B5D882309F4BDCD83
:104280001298BBCD5F988A988091080181708093C5
:10429000060147981298B1CD8DE40E94845D882371
:1042A000D9F00E94DC5C813069F038F0823079F41A
:1042B00062E0802F0E947966A0CD60E0802F0E948E
:1042C00079669BCD61E0802F0E94796696CD8EE362
:1042D00096E00E94032A91CD83E50E94845D8823A5
:1042E00009F48BCD0E94DC5CF82E39E0E31203C0A8
:1042F0008093530782CD61E0802F0E9479666F2DF5
:10430000802F0E944A666F2D70E0802F0E94B56654
:1043100074CD0E94045D0E941EAC6E3671050CF0D7
:1043200060C17093B1036093B0030E940D3C0E9482
:10433000FA3B81110E94027A8091AC039091AD0307
:10434000A091AE03B091AF0340E050E060E87FEB96
:104350004A8F5B8F6C8F7D8F21E0209320028E8BA4
:104360009F8BA88FB98F8FE78093A3031E8E1F8E1C
:1043700018A219A21AA61BA61CA61DA610E01FA60D
:104380008CE389AB9CE19AABA6E4ABABB1E0BEA7F2
:10439000812C912C54016091B0037091B103072ED0
:1043A000000C880B990B0E942EA66B017C012A8DB4
:1043B0003B8D4C8D5D8D0E9427A68823E9F02091CE
:1043C000AC033091AD034091AE035091AF03CA8E60
:1043D000DB8EEC8EFD8EEEA1C701B601E11107C0A8
:1043E0000E9427A6182F111F1127111F05C00E9418
:1043F00027A687FD02CD10E00E94B8676B017C0103
:10440000DC01CB012AA53BA54CA55DA5821B930B26
:10441000A40BB50BB7FD33C0D701C60188519C4F23
:10442000AF4FBF4F8AA79BA7ACA7BDA780E00E9454
:1044300054688FE392E00E94032A81149104A1043E
:10444000B104B9F0D501C401805F984DAF4FBF4FA3
:10445000BC01CD016C197D098E099F0928EE33E05E
:1044600040E050E00E942EAACA01B9010E94242B0C
:1044700003C08FE30E94FC298AE00E94FC290E946D
:10448000FA2B0E94B8676093A4037093A5038093EE
:10449000A6039093A7038091AC039091AD03A091E4
:1044A000AE03B091AF0389839A83AB83BC831111B0
:1044B0000AC0AE01465E5F4FBE016F5F7F4FCE0107
:1044C00046960E94845E29803A809B819AA30C8143
:1044D0009101492F502F6A8D7B8D8C8D9D8D0E946F
:1044E000B1AA2B013C0120E030E0A9010E9412ADED
:1044F00087FF04C077FA709477F870948114910460
:10450000A104B104B1F420E030E040E85FE3C3016E
:10451000B2010E9427A687FF18C0AEA54601570129
:10452000AA2399F0B0E18B0EB7E29B1EA11CB11C2F
:104530000CC020E030E040E450E4C301B2010E942E
:1045400012AD181614F446015701112389F12E8D6E
:104550003F8D48A159A1211531054105510541F073
:10456000D701C601821B930BA40BB50BB7FD20C06E
:1045700091014AA1502F6FA579A98AA99BA90E94F0
:10458000B1AA20E030E040EC5FE30E9427A687FD5F
:1045900034CCD701C601805A9541AF4FBF4F8E8FA3
:1045A0009F8FA8A3B9A32FA639AA9AA19AAB0BAB48
:1045B00080912002882309F420CC81149104A10465
:1045C000B10411F41EA6E7CEA0E1CA1AA7E2DA0AE6
:1045D000E108F108C818D908EA08FB08F7FCF2CF8F
:1045E0000CCC6EE670E09DCE0E94B89288E50E94E9
:1045F0003B5D882331F05F9A80916C0F8E7F8093B2
:104600006C0F89E50E943B5D882331F08A9A809186
:104610006C0F8D7F80936C0F8AE50E943B5D882331
:1046200061F0809108018095817080930601479A1E
:1046300080916C0F8B7F80936C0F85E40E943B5DB3
:10464000882309F4DACB0E94CC27D7CB0E94779439
:10465000D4CB83E50E94845D882391F00E94045DA1
:104660006093D70D7093D80D8093D90D9093DA0D88
:104670006093DF0D7093E00D8093E10D9093E20D58
:1046800080E50E94845D882351F00E94045D609360
:10469000D70D7093D80D8093D90D9093DA0D82E5E4
:1046A0000E94845D882351F00E94045D6093DB0DBD
:1046B0007093DC0D8093DD0D9093DE0D84E50E94F8
:1046C000845D882309F499CB0E94045D6093DF0D1B
:1046D0007093E00D8093E10D9093E20D8ECB82E418
:1046E0000E943B5D8823C1F08091FA039091FB0307
:1046F000009739F04AE050E060E070E00E94A7A423
:1047000003C060E070E0CB016093B30D7093B40D13
:104710008093B50D9093B60D83E50E943B5D882391
:1047200051F00E94045D6093E30D7093E40D80935B
:10473000E50D9093E60D84E50E943B5D882351F0E2
:104740000E94045D6093E70D7093E80D8093E90D7E
:104750009093EA0D88E50E943B5D882351F00E940A
:10476000045D6093430770934407809345079093DB
:10477000460789E50E943B5D882351F00E94045D55
:1047800060934707709348078093490790934A07BF
:104790008AE50E943B5D8823B1F00E94045D60932E
:1047A0004B0770934C0780934D0790934E072DEC69
:1047B0003CEC4CEC5DE30E9427A6181624F087ED34
:1047C00093E00E94032A85E40E943B5D882309F45C
:1047D00014CB0E94045D60934F0770935007809341
:1047E00051079093520709CBC12CD12CE12C10E436
:1047F000F12E0C94AF1BC12CD12CE12CB0ECFB2E74
:104800000C94AF1BA70196016091760F7091770F02
:104810008091780F9091790F0E94B2AA6093760FE1
:104820007093770F8093780F9093790F0E94292AC5
:104830004091760F5091770F6091780F7091790FBA
:1048400081E893E00E94C22B8AE00E94FC290C942C
:10485000E31B82E50E943B5D81110C94EF1BCDCAE6
:10486000B7FAB094B7F8B094D7018D929D92AD92FB
:10487000BC921397C2C90C5F1F4FBFEFCB1ADB0A64
:10488000EDEBF6E0E017F10709F088C987E8E82EBC
:1048900083E0F82E10E0F10181919191A191B19105
:1048A0001F01F70181939193A193B1937F01812F10
:1048B0000E94A7531F5F133071F70E94045A9DCACC
:1048C0000E94252A8AEE92E00E94032A96CAF0915D
:1048D0006E0FFE8F80906F0F7090700F6090710F51
:1048E0005090720F4090730F3090740F2090750F9E
:1048F000C090760FD090770FE090780FF090790FFE
:1049000088E50E94845D882361F10E94045D5B015B
:104910008C0120E030E04BE953EC0E9412AD87FDA2
:104920000AC020E030E04BE953E4B501C8010E9421
:1049300027A6181694F466E371E08DEB92E00E94CE
:10494000402B66E371E088EB92E00E94402B89EDFA
:1049500092E10E94032A10E005C0AE8E8B2C702ECF
:10496000612E11E089E50E94845D882381F10E9417
:10497000045D962EA72EB82E092F20E030E04BE9DB
:1049800053EC0E9412AD87FD0CC020E030E04BE9F3
:1049900053E4692D7A2D8B2D902F0E9427A618168F
:1049A00094F466E371E085EA92E00E94402B66E3AE
:1049B00071E088EB92E00E94402B89ED92E10E9429
:1049C000032A10E004C0592C4A2C3B2C202E8AE5E7
:1049D0000E94845D882339F10E94045D6B017C0193
:1049E00020E030E040EA51EC0E9412AD87FD0AC0A1
:1049F00020E030E040EA51E4C701B6010E9427A65A
:104A000018168CF46CEE7FEF83E992E00E94402B45
:104A100064E170E088EB92E00E94402B89ED92E126
:104A20000E94032AEAC9112309F4E7C98E8D982D43
:104A3000A72DB62D80936E0F90936F0FA093700FDC
:104A4000B093710F852D942DA32DB22D8093720FED
:104A50009093730FA093740FB093750FC092760F5D
:104A6000D092770FE092780FF092790FC6C9E39653
:104A70000FB6F894DEBF0FBECDBFDF91CF911F916F
:104A80000F91FF90EF90DF90CF90BF90AF909F90ED
:104A90008F907F906F905F904F903F902F900895F0
:104AA000CF92DF92EF92FF920F931F93CF93DF93FA
:104AB0006C018B017A01EC01CC5EDB4F888187FFB2
:104AC00004C0FB011182108224C02CE02C9DC00187
:104AD0002D9D900D11242881AC01420F511D27FD01
:104AE0005A952091270F30E04217530794F42881FC
:104AF000AC01420F511D27FD5A959A01FA01EE0FA4
:104B0000FF1F2E0F3F1FF901E554F14F208127FDB4
:104B100019C088818F5F88832CE02C9DC0012D9D5A
:104B2000900D11242881AC01420F511D27FD5A958B
:104B30002091270F30E042175307BCF428812C3016
:104B400044F113C02881820F911D27FD9A95FC0125
:104B5000EE0FFF1F8E0F9F1FFC01E554F14F808168
:104B600060E08F770E944A66D4CFF80180819181FE
:104B7000049680349C4918F480E49CE904C0F80150
:104B8000808191810496F701918380838FEF8883E0
:104B900045C0F801408151812881BC01620F711D1F
:104BA00027FD7A959B01FB01EE0FFF1F2E0F3F1F84
:104BB000F901E554F14F21813281240F351FF701AE
:104BC000318320832881AC01420F511D27FD5A9566
:104BD0009A01FA01EE0FFF1F2E0F3F1FF901E55456
:104BE000F14F208127FF1AC02881820F911D27FDD8
:104BF0009A95FC01EE0FFF1F8E0F9F1FFC01E554DD
:104C0000F14F808161E08F77DF91CF911F910F91FC
:104C1000FF90EF90DF90CF900C944A66DF91CF9198
:104C20001F910F91FF90EF90DF90CF9008952F92FA
:104C30003F924F925F926F927F928F929F92AF922C
:104C4000BF92CF92DF92EF92FF920F931F93CF9379
:104C5000DF93CDB7DEB72E970FB6F894DEBF0FBE49
:104C6000CDBFF82EE62E042FA22E282F30E03C8751
:104C70002B87462F50E05A87498715E0129FC001C5
:104C8000139F900D11249E878D87FA01E80FF91F5D
:104C9000EE0FFF1FEE0FFF1FE45EFC4F608171817E
:104CA000828193819B01AC010E94A4AD882309F409
:104CB00036C1F00E6E2D6A0D1F9D40011124E9854D
:104CC000FA85E80DF91DEE0FFF1FEE0FFF1FE45EE2
:104CD000FC4FB080C180D280E380F00E1F9DA00108
:104CE0001124E985FA85E40FF51FEE0FFF1FEE0F83
:104CF000FF1FE45EFC4FF080018112817380E62F7C
:104D0000F0E0AD85BE85AE0FBF1FAA0FBB1FAA0F77
:104D1000BB1FA45EBC4F6C9011965C9011971296CD
:104D20004C90129713963C906A0D70E0AD85BE854D
:104D3000A60FB71FAA0FBB1FAA0FBB1FA45EBC4FB5
:104D4000BE87AD872C901196AC9011971296BC91AE
:104D5000B983AD85BE851396BC91BA83E80DF91D64
:104D6000EE0FFF1FEE0FFF1FE45EFC4F908081806F
:104D700022812B8333813C83FA01E60FF71FEE0F6C
:104D8000FF1FEE0FFF1FE45EFC4F40814D835181FA
:104D90005E8382818F83938198872F2D302F412FBF
:104DA000572D6F2D702F812F972D0E94A4AD882332
:104DB00021F0F12C00E010E0712C2B2D3C2D4D2D1D
:104DC0005E2D6B2D7C2D8D2D9E2D0E94A4AD8823F4
:104DD00019F0BF2C6801E72C222D3A2D49815A8108
:104DE000622D7A2D89819A810E94A4AD882321F0B9
:104DF000212CA12C19821A82262D352D442D532DBC
:104E0000662D752D842D932D0E94A4AD882321F04D
:104E1000622C5A2C49803A802D813E814F815885E1
:104E20006D817E818F8198850E94A4AD882321F0B9
:104E30001D821E821F821886292D382D4B815C8190
:104E4000692D782D8B819C810E94A4AD882331F03F
:104E50009D808E80AF81AB83B885BC8385E02B8538
:104E60003C85829FF001839FF00D112449855A856E
:104E7000E40FF51FEE0FFF1FEE0FFF1FE45EFC4F68
:104E8000FA87E9872B2D3C2D4D2D5E2D6B2D7C2D2A
:104E90008D2D9E2D0E94B2AA2F2D302F412F572DE0
:104EA0000E94B1AA6B017C01262D352D442D532D76
:104EB000662D752D842D932D0E94B2AA222D3A2D98
:104EC00049815A810E94B1AA9B01AC01C701B60178
:104ED0000E94B2AA6B017C01292D382D4B815C8187
:104EE000692D782D8B819C810E94B2AA2D813E81F3
:104EF0004F8158850E94B1AA9B01AC01C701B60140
:104F00000E94B2AA20E030E040E450E40E94ACAB42
:104F1000A985BA856D937D938D939C9313972E9657
:104F20000FB6F894DEBF0FBECDBFDF91CF911F91BA
:104F30000F91FF90EF90DF90CF90BF90AF909F9038
:104F40008F907F906F905F904F903F902F9008953B
:104F5000CF92DF92EF92FF926B017C0183E3C81640
:104F6000D104E104F10470F082E3C81AD108E10829
:104F7000F10862E370E080E090E00E947E670E94AA
:104F8000A840ECCFC701B6010E947E67FF90EF906A
:104F9000DF90CF900C94A840129A08955F9A809168
:104FA0006C0F8E7F80936C0F8A9A80916C0F8D7F2F
:104FB00080936C0F80910801809581708093060129
:104FC000479A80916C0F8B7F80936C0F0C94CC2749
:104FD0000E94945390912F0F90932E0F90932D0F2A
:104FE00090932C0F94E690932B0F28EE33E03093A0
:104FF000A10D2093A00D81110E94A15381E0809307
:10500000E0040E94B8928EEF0E9441580C94D1584F
:10501000DC01EC91F0E0CF01880F991FE80FF91F38
:10502000E554F14F80818F77808308958F929F920E
:10503000AF92BF92CF92DF92EF92FF920F93CF93F6
:10504000DF931F92CDB7DEB75C016B017A01490196
:10505000F501808191810E9408AA8983002311F0C3
:10506000F6018083BE016F5F7F4FC4010E94D1991A
:10507000F50180819181019691838083FFEFCF1AA2
:10508000DF0A81E0E81AF10819F780E00F90DF915C
:10509000CF910F91FF90EF90DF90CF90BF90AF90A6
:1050A0009F908F900895009781F41092900082E075
:1050B000809391001092950010929400C19A809173
:1050C000710082608093710008958130910569F4C8
:1050D0001092A00082E08093A1001092A50010928F
:1050E000A40089BB809372000895029761F4109226
:1050F000200182E080932101109225011092240169
:105100008ABB8093730008957F928F929F92AF9293
:10511000BF92CF92DF92EF92FF920F931F93CF93A4
:10512000DF93FC019081943208F0CEC06B017F01C7
:10513000892F90E0FC01EE0FFF1F8E0F9F1FFC01D7
:10514000E554F14F808161E08F770E947966F70125
:105150001182128280816CE00E9489AAFCE08F9FFC
:10516000B001112440E050E09B01240F351FF901EC
:10517000EE0FFF1F2E0F3F1FF901E554F14F9081F5
:1051800097FD08C04F5F5F4F4C30510569F790E0C5
:105190000E945328F7017080C72DD0E08E01000FC8
:1051A000111FF801EC0FFD1FE554F14F808180685D
:1051B000808377FC89C0F0E2CF16F2E0DF060CF0C6
:1051C00041C0F701828128E532E0281B310987FDC3
:1051D0003395220F331F220F331F032E000C440B75
:1051E000550B818168E870E04B01881A910887FDB2
:1051F0009394880C991C880C991C092C000CAA0803
:10520000BB08D7FC0BC0B601653B710514F064EB1D
:1052100070E0072E000C880B990B03C060E070E073
:10522000CB01281939094A095B090E941EAA24EBFF
:1052300030E040E050E00E9450AA820E931EA41E6F
:10524000B51E01C04601F3E2F71558F1F7012181BF
:1052500088E890E0821B910927FD9395880F991F9C
:10526000880F991F8816990684F0F701228188E536
:1052700092E0821B910927FD9395880F991F880F53
:10528000991F881699060CF4C40102972FB7F89459
:10529000C00FD11FC554D14F880F991F9A8389839E
:1052A0002FBF62E370E080E090E0DF91CF911F912B
:1052B0000F91FF90EF90DF90CF90BF90AF909F90B5
:1052C0008F907F900C94A827DF91CF911F910F9121
:1052D000FF90EF90DF90CF90BF90AF909F908F9016
:1052E0007F9008951F920F920FB60F9211240BB664
:1052F0000F922F933F934F935F936F937F938F936F
:105300009F93AF93BF93EF93FF9348E251E064E222
:1053100071E082E090E00E945025FF91EF91BF91F3
:10532000AF919F918F917F916F915F914F913F913D
:105330002F910F900BBE0F900FBE0F901F901895DE
:105340001F920F920FB60F9211240BB60F922F934C
:105350003F934F935F936F937F938F939F93AF93FD
:10536000BF93EF93FF9348EA50E064EA70E081E076
:1053700090E00E945025FF91EF91BF91AF919F91D6
:105380008F917F916F915F914F913F912F910F90EE
:105390000BBE0F900FBE0F901F9018951F920F928B
:1053A0000FB60F9211240BB60F922F933F934F938A
:1053B0005F936F937F938F939F93AF93BF93EF937D
:1053C000FF9348E950E064E970E080E090E00E94DB
:1053D0005025FF91EF91BF91AF919F918F917F9158
:1053E0006F915F914F913F912F910F900BBE0F9056
:1053F0000FBE0F901F9018959091C00095FFFCCFA5
:105400008093C6000895CF93DF93FC018491EF0150
:105410002196882321F00E94FC29FE01F7CFDF911D
:10542000CF9108950F931F93CF93DF938B010E9429
:10543000032AE8018991882319F00E94FC29FACFF8
:10544000DF91CF911F910F91089581E298E00C9424
:10545000032A8BE198E00C94032AC42F0E94453C58
:105460000E94252A8BEF97E00E94032A89EE93E0A1
:1054700030E6019729F0232F2A950000E9F7F9CFAC
:10548000F89489EE93E038EE019729F0232F2A95BE
:105490000000E9F7F9CF0E94453CCC2319F00E94A7
:1054A000CE2702C00E94CC27A895FECF7F928F9274
:1054B0009F92AF92BF92CF92DF92EF92FF920F93A3
:1054C0001F93CF93DF931F92CDB7DEB77C015901B5
:1054D0008B016B01C40ED51E0C151D0559F1F7018A
:1054E00080809180F80171908F017982C4010E94BF
:1054F00008AA781691F0672DC4010E9410AAC40171
:105500000E9408AA9981891741F00E94292A82EEF7
:1055100096E00E94032A81E00EC0BE016F5F7F4FBC
:10552000C5010E94D199F7018081918101969183F3
:105530008083D2CF80E00F90DF91CF911F910F91A8
:10554000FF90EF90DF90CF90BF90AF909F908F90A3
:105550007F9008958F929F92AF92BF92EF92FF92A9
:105560000F931F93CF93DF93CDB7DEB7A0970FB6FE
:10557000F894DEBF0FBECDBF6115710581059105A1
:1055800091F100E0842E912CA12CB12C102FEE244F
:10559000E394F12CEC0EFD1EE00EF11C07FDFA94D5
:1055A000A50194010E942EAAF7016083B901CA01E6
:1055B0000F5F611571058105910541F71F3F31F1BD
:1055C000E1E0F0E0EC0FFD1FE10FF11D17FDFA9592
:1055D00080818A3010F097E301C090E3890F0E9428
:1055E000FC291150EBCF80E3A0960FB6F894DEBFF4
:1055F0000FBECDBFDF91CF911F910F91FF90EF9024
:10560000BF90AF909F908F900C94FC29A0960FB6FE
:10561000F894DEBF0FBECDBFDF91CF911F910F91E8
:10562000FF90EF90BF90AF909F908F900895CF9391
:10563000DF93EB010E94032ABE0180E090E04AE084
:10564000DF91CF910C94AA2ACF92DF92EF92FF9232
:105650006B017C0197FF0BC08DE20E94FC29F09446
:10566000E094D094C094C11CD11CE11CF11C4AE010
:10567000C701B601FF90EF90DF90CF900C94AA2A5B
:10568000CF93DF93EB010E94032ABE01DD0F880B4D
:10569000990BDF91CF910C94242B8F929F92AF9214
:1056A000BF92CF92DF92EF92FF92CF936B017C017A
:1056B000B42E20E030E0A9010E9427A687FF07C092
:1056C0008DE20E94FC29F7FAF094F7F8F094C0E01C
:1056D00060E070E080E09FE3CB1541F02DEC3CEC06
:1056E0004CEC5DE30E948DA6CF5FF6CF9B01AC0131
:1056F000C701B6010E94B2AA6B017C010E9425ACD1
:105700004B015C014AE00E94AA2ACC2389F1C50121
:10571000B4010E942CA69B01AC01C701B6010E94F6
:10572000B1AA6B017C018EE20E94FC2920E030E0EE
:1057300040E251E4C701B6010E948DA64B015C0115
:105740000E941EAC6B01770FEE08FF08C701B6017F
:105750000E94242BC701B6010E942EA69B01AC011A
:10576000C501B4010E94B1AA6B017C01C150F1F6E0
:10577000CF91FF90EF90DF90CF90BF90AF909F9030
:105780008F900895CF92DF92EF92FF926A017B0192
:105790000E94032A42E0C701B601FF90EF90DF901C
:1057A000CF900C944D2B8DE00E94FC298AE00C9444
:1057B000FC29CF93DF93EC018991882319F00E9493
:1057C000FC29FACFDF91CF910C94D32B80910A0E54
:1057D00090910B0E981759F0E92FF0E0E65FF14F2A
:1057E00082819F5F9F7790930B0E90E008958FEFDB
:1057F0009FEF08952F923F924F925F926F927F9208
:105800008F929F92AF92BF92CF92DF92EF92FF92D0
:105810000F931F93CF93DF93CDB7DEB728970FB6C3
:10582000F894DEBF0FBECDBF0E94B8676B017C014C
:1058300080911F02882359F180910104882339F156
:1058400040911704509118046091190470911A0442
:1058500097018601041B150B260B370B37FD2AC059
:10586000833079F03CF4813094F00E94292A8BE255
:1058700097E00BC0843059F40E94292A8CEF96E0FF
:1058800004C00E94292A84E197E00E94032A209103
:105890001F0230E0A8EEB3E00E947AAAC60ED71E1F
:1058A000E81EF91EC0921704D0921804E092190461
:1058B000F0921A0480912107843008F053C180E6E9
:1058C000F82E01E080912107843008F04BC18091CF
:1058D0000A0E90910B0E891B8F7709F443C10E9429
:1058E000E62BAC0197FDEECF8A3019F08D3009F030
:1058F0000FC11092240480918C0E90918D0EFC01AA
:10590000EB5DFB4F1082892B49F010928D0E1092A7
:105910008C0E25E234E03F832E8303C00E94A84012
:10592000D1CFEE81FF818191803219F4FF83EE8324
:10593000F8CF8E3409F082C04E815F814115510548
:1059400009F47CC066EF77E0CA010E94DEA56C0115
:10595000892B49F06EE470E08E819F8104960E944D
:10596000C4AD009711F48E819F814AE050E060E061
:1059700070E001960E9479A3609320047093210443
:1059800080932204909323048090BF039090C003DF
:10599000A090C103B090C2035FEF851A950AA50AD3
:1059A000B50A681579058A059B0531F0CD2821F4E3
:1059B00060E083EC97E02BC06AE270E08E819F810B
:1059C0000E94EDAD9C01009729F1982F8E81981BC4
:1059D00010E0992341F09150EE81FF81E90FF11D14
:1059E00080811827F6CF4AE050E060E070E0C901FE
:1059F00001960E9479A3812E912CA12CB12C6815BF
:105A000079058A059B0551F060E084EA97E00E94E1
:105A10003282A8C060E08AE797E0F9CF8091200445
:105A200090912104A0912204B09123048093BF039C
:105A30009093C003A093C103B093C2038091FC0371
:105A40008130C1F067E470E08E819F810E94C4AD17
:105A5000009781F04AE050E060E070E001960E941B
:105A600079A3643071058105910520F488E495E1FE
:105A70000E94032A6CEF72E08E819F810E94CFAD5D
:105A8000892B11F41092200261E073E08E819F81D6
:105A90000E94CFAD892B31F441E060E070E086E1F7
:105AA00096E097C066E073E08E819F810E94CFAD43
:105AB000892B11F40E94E827809125048B3309F487
:105AC00001CF109121071A83143008F0FBCE1091FA
:105AD0001F04C12ED12CFC9CC001FD9C900D1124F3
